:02000000ff00ff
:080002004c6174746963650030
:17000a00694345637562653220323031362e31322e32373931300072
:16002100506172743a2069434534304858314b2d545131343400fc
:1b003700446174653a204d617220313220323031372031333a31383a3238007e
:0200520000ffad
:040054007eaa997e69
:02005800510055
:02005a0001059e
:03005c00920020ef
:03005f0062014bf0
:0300620072009099
:0300650082000016
:02006800110085
:02006a00010192
:20006c0000000000000000000000000000000000000000000008000000000000200000004c
:09008c0000000000080000000063
:2000950000000000000000000000000000000000000000000000000000000000000000004b
:0a00b50000000000005000000000f1
:2000bf000000000000000000000000000000000000000000000400500000000010000000bd
:0900df00000000400000000000d8
:2000e8000000000000000000000000000000000000000000000000080000000000000000f0
:0a01080000000000000000000000ed
:20011200000000000000000000000000000000000000000000080000003000002000000075
:09013200000000000000000000c4
:20013b000000000000000000000000000000000000000000000000000001000000000000a3
:0a015b000c0000000000000000008e
:200165000000000000040000000000001000000000000040000000001000000000000040d6
:0901850000000040000000000031
:20018e00000000000000000000000000000000000000000000000000000000000000000051
:0a01ae000000000000000000000047
:2001b80000000000000400000000000010200000000000400000000010000000000000c0e3
:0901d8000000000000010000001d
:2001e1000000000000000000000000000000000000000000000000000000000000000000fe
:0a02010000000000000000000000f3
:20020b0000000000000000000000000000040000000000000000000000000000000340008c
:09022b0040000000000000c000ca
:200234000000000000000000000000078000400000000000000000000000000002000000e1
:0a025400040000000000000c000090
:20025e00000000000000000000000000000000000000000000000000000000000000600020
:09027e0000000000000000000077
:20028700000000000000000000000000000000000000000000000000000000000100020054
:0a02a700000000000000000000004d
:2002b1000000000000000400000000000000000000000000000000001000000000000040d9
:0902d10000000000000000000024
:2002da00000000000000000000000000000000000000000000000000000000000200000002
:0a02fa0000000000000000000000fa
:20030400000000000000000000000000000000000000000000000000400a540000000080bb
:090324002948000000000000005f
:20032d0000000000000000000000000000000000004000000000000022405a0100000009aa
:0a034d00016800000000000000003d
:2003570000000000000000000000000000000000000000000060000000000001800000079e
:09037700bc1000000000000000b1
:200380000000000000000000000000000000000000000000000000000000000000001080cd
:0a03a00003c0000000000000000090
:2003aa00207000000000000000000000000000000000000000000200200a54000000000023
:0903ca000000000000000000002a
:2003d30002002000000000000000000000000000000000000000000403405a000000000047
:0a03f3000000000000000000000000
:2003fd000002000000000000000000000000000000000000000000060000000300000006cf
:09041d003c00000000000000009a
:20042600000020000000000000000000000000000000000000000100000000001000000085
:0a04460003c00000000000000000e9
:2004500000000000000000000000000000000000000000000000016000000000000000002b
:0904700000000000000000000083
:20047900000020000000000000000000000000000000000000000000000000000000000043
:0a0499000000000000000000000059
:2004a30000000000000000000000000000000000000000000000020005a080110000000001
:0904c30000000000000000000030
:2004cc0000000000000000000000000000000000000000000000000c017c00002000000067
:0a04ec000000000000000000000006
:2004f6000000000000000000000000000000000000000000000000000000000000000000e6
:09051600000000000000000000dc
:20051f000000000000000000000000000000000000000000000000000000000000000000bc
:0a053f0000000000000000000000b2
:2005490000000000000000000000000000000000000000000000000001cf0400000380003b
:0905690000000000000000000089
:200572000000000000000000000000000000000000000000000000000000f0000000080071
:0a059200000000000000000000005f
:20059c0040010000000000000000000000000000000000000000000001cf04000000009b8f
:0905bc00c200000000015e0240d3
:2005c5000000200000000000000000000000000000000000000000000010f00000000001f5
:0a05e500e400000000001dd04000fb
:2005ef0000020000000000000000000000000000000000000060000000cf040180081b0013
:09060f00000006000000000000dc
:200618000800000000000000000000000000000000000000000000000000f000000010a01a
:0a06380000000000000000000000b8
:20064200480000000000000000000000000000000000000000c0000001ef0403000d800606
:090662003c100c00200000000017
:20066b0000c0200000000000000000000000000000000000000000000010f000000050003f
:0a068b0043c0000000400000000022
:200695000002000000000000000000000000000000000000000000000000000000018000c2
:0906b5000000000000000000003c
:2006be000002c000000000000000000000000000000000000000000000000000000000005a
:0a06de000000000000000000000012
:2006e8000000000000000000000000000000000000000000000002000000000000000000f0
:090708002950000020041cf040ff
:2007110000002000000000000000000000000000000000000000000400000000000000059f
:0a0731000168000002c3800f000001
:20073b00000000000000000000000000000000000000000000000006c000000000001800c0
:09075b0029500000062200a5400f
:20076400000000000000000000000000000000000000000000000000200000000000000f46
:0a0784000168000001c3ac05a000ed
:20078e0000000000000000000000000000000000000000000000000040ef0400000001ba5d
:0907ae00820000001625df810025
:2007b7000000000000000000000000000000000000000000000000002010f000000000857d
:0a07d700a800000001c77cc4000068
:2007e10000000000000000000000000000000000000000000000000001cf0400000000061e
:09080100bc1000000004dc080238
:20080a000000000000000000000000000000000000000000000000002810f00000000000a6
:0a082a0003c000000142bd00000001
:2008340000000000000000000000000000000000000000000000020041af0400000000f6b8
:09085400404000000001e00080ba
:20085d0000000002800000000000000000000000004000000000002c2000f0000000000b72
:0a087d007c000000000000c0000035
:20088700000200000000000000000000000000000000000000600000040a540180001800f4
:0908a700000002000001c8f0c0cd
:2008b0000000000000000000000000000000000000000000000000000000a500000001a0e2
:0a08d0000000008000000000f000ae
:2008da00000000000000000000000000000000000000000000000200200a5483000000fffc
:0908fa0002000400006548f0c092
:2009030000000000000000000000000000000000000000000000000401405a0000005005e0
:0a092300f400008000020200f00062
:20092d0000020000000000000000000000000000000000000000026000000000000180368f
:09094d0020008000260548f0c0de
:20095600000000000000000000000000000000000000000000000004000000000000000578
:0a0976004000800000420200f00083
:2009800000000000000000000000000000000000000000000000000001ef04000000010062
:0909a00000000000200168f0c015
:2009a9000000200000000000000000000000000000000000000000000000f0000000d090be
:0a09c9000000000002c00000f00072
:2009d300000000000000000000000000000000000000000000000000000a5400000018800e
:0909f30029500000000168f0c069
:2009fc0000000000000000000000000000000000000000000000000001405a00000000ab95
:0a0a1c000168000000000000f00077
:200a260000000000000000000000000000000000000000000000000035a0800000000a80d1
:090a460029500000060168f0c00f
:200a4f000000000000000000000000000000000000000000000000000149000000009105a7
:0a0a6f000168000000000200f00022
:200a79000000000000000000000000000000000000000000000002000000000000000b034d
:090a9900bc1000002061e8f0c06f
:200aa20000000000000000000000000000000000000000000000002c000000000000008088
:0a0ac20043c0000002c00200f00073
:200acc000000000000000000000200000000000000000000000000002ce0800000078003f2
:090aec00bc1200000001c8f0c0ba
:200af500000000000000000000000000000000000000000000000034035b000008005800ef
:0a0b150043c0002000000000f0c003
:200b1f0000000000000000000000000000000000000000000060000701af04018008000012
:090b3f00000002000001c8f0c032
:200b48004000000000000000000000000000000000000000000000342810f00000001000e1
:0a0b68000000008000000000f00013
:200b7200000000000000000000000000000000000000000000c0000600cf040000080000c2
:090b920029500400006548f0c080
:200b9b000000000000000000000000000000000000000000000000000000f0000000100733
:0a0bbb000168008000020200f080d3
:200bc500000200000000000000000000000000000000000000000006000a540000080000a2
:090be50000000000060548f0c004
:200bee0000000000000000000000000000000000000000000000000003c05a00000070005a
:0a0c0e000000002000020200f08048
:200c18000000000000000000000000000000000000000000000000600000000000050a1637
:090c3800941000000001e8f0c076
:200c410000002000000000000000000000000000000000000002000000000000080000a0c9
:0a0c61000140002000000000f080b8
:200c6b00000000000000000000000000000000000000000000000000000000000000000663
:090c8b003c10000a000168f0c0f1
:200c9400000000000000000000000000000000000000000000020000000000000800000036
:0a0cb40003c0002000000000f080e3
:200cbe000000000000000000000000000000000000000000000000007ff0000000018133f2
:090cde001f804000260168f0c0ef
:200ce70000000000000000000000000000000000000000000000000023e810000800088141
:0a0d0700b5fc000000400200f000ff
:200d1100000000000000000000000000000000000000000000000006a587f4200000007606
:090d3100020000002061e8f0c09e
:200d3a000000000000000000000000000000000000000000000000142a50ff000000000ffd
:0a0d5a002800000000400200f00035
:200d6400000100000000000000000000000000000000000000000006469080000000000012
:090d8400000000000001c8f0c0ed
:200d8d00000000000000000000000000000000000040000000000000225d00000000000087
:0a0dad000000002000000000f0c06c
:200db7000002000000000000000000000000000000000000006002600000000180050000d2
:090dd700000002000001c8f0c098
:200de0000000000000000000000000000000000000000000000000040000000000000000ef
:0a0e00000000008000000000f00078
:200e0a00000000000000000000000000000000000000000000000000018f04000000000034
:090e2a0000000400006548f0c05e
:200e33000000000000000000000000000000000000000000000000000000f00000000000af
:0a0e53000000008000020200f10020
:200e5d00000200000000000000000000000000000000000000000000018f040000000000df
:090e7d000000000020014855406e
:200e86000000000000000000000000000000000000000000000000000000f000000000005c
:0a0ea600000000200040020550008b
:200eb00000000000000000000000000000000000000000000000000001ef04000000003ef0
:090ed0000280000000001a0f402e
:200ed9000000200000000000000000000000000000000000000200000010f00008000000cf
:0a0ef9000028000000000000f08057
:200f0300000000000000000000000000000000000000000000000000400a5400000180802f
:090f23002950000000000000004c
:200f2c0000000000000000000000000000000000003800000000000022405a0000000001b0
:0a0f4c000168000000000000000032
:200f5600000000000000000000000000000000000000000000000000000a54000000000716
:090f76003c10000026017e9640ab
:200f7f0000000000000000000000000000000000000000000000000002405a0800000000ae
:0a0f9f0003c000000040010960805b
:200fa9000000000000000000000000000000000000000000000000004000000000000000e8
:090fc9000000000000040000001b
:200fd2000000000000000000000000000000000000000000000000002800000000000000d7
:0a0ff20000000000000200000000f3
:200ffc00400000000000000000000000000000000000000000000000000000000000000095
:09101c00000000000000000000cb
:2010250000002000000000000000000000000000000000000000000000000000000000008b
:0a10450000000000000000000000a1
:20104f000000000000000000000000000005a00000000000000000000000000000000000dc
:09106f0000000000000000000078
:2010780008000000000000000000000003c0a50100000000000000000000000000000000e7
:0a109800000000000000000000004e
:2010a2004800000000000000000000000000000000000000000000000000000000000000e6
:0910c20000000000000000000025
:2010cb0000c000000000000000000000000000000000000000000000000000000000000045
:0a10eb0000000000000000000000fb
:2010f5000006000000000000000000000000000000000000000000000000000000000000d5
:09111500000000000000000000d1
:20111e000002c00000000000000000000000000000000000000000000000000000000000ef
:0a113e0000000000000000000000a7
:20114800000000000000000000000000000000000000000000000000000000000000000087
:091168000000000000000000007e
:2011710000002000000000000000000000000000000000000000000000000000000000003e
:0a1191000000000000000000000054
:20119b00000000000400000000000000000000000000000000000000000000000000000030
:0911bb00000000000002005a08c7
:2011c40000000000000000000000000000000000000000000000000000000000000000000b
:0a11e4000000000000003c0a50006b
:2011ee000000000000000000000000000000000000000000000000000000000000000000e1
:09120e00000000000000000000d7
:20121700000000000000000000000000240000000000000000000000000000000000000093
:0a12370000000000000000000000ad
:2012410000000000000000000000000000000000000000000000000000000000000000008d
:0912610000000000000000000084
:20126a00000000000000000000000000000000000000000000000000000000000000000064
:0a128a000000000000020000000058
:2012940000000000000000000000000000000000000000000000000000000000000000003a
:0912b40000000000000000000031
:2012bd000000000000000000000000003000000000400000000000000000000000000000a1
:0a12dd000000000000000000000007
:2012e7000000010000000000000000000000000000000000000000000000000000000000e6
:09130700000000000000000000dd
:2013100000000020000000000000000000000000000000000000000000000000000000009d
:0a13300000000000000000000000b3
:20133a00000000000000000000000000000000000000000000000000000000000000000093
:09135a000000000000000000008a
:2013630000000000000000000000000000000000000000000000000000000000000000006a
:0a1383000000000000000000000060
:20138d0004020000000000000000000000000000000000000000000000000000000000003a
:0913ad0000000100000000000036
:2013b600000000000000000000000000000000000000000000000000000000000000000017
:0a13d600000000000000000000000d
:2013e0000000000000000000000000000000000000000000000000000000000000000000ed
:09140000000000000000000000e3
:201409000000200000000000000000000000000000000000000000000000000000000000a3
:0a14290000000000000000000000b9
:20143300000000000000000000000000000000000000000000000000000000000000000099
:0914530000000000000000000090
:20145c00000000000000000000000000000000000000000000000000000000000000000070
:0a147c000000000000000000000066
:20148600000000000000000000000000000000000000000000000000000000000000000046
:0914a6000000000000000000003d
:2014af0000000000000000000000000000000000000000000000000000000000000000001d
:0a14cf000000000000000000000013
:2014d9000000000000000000000000000080f0000000000000000000000000001000000073
:0914f900000000000000000000ea
:2015020000000000000000000000000000100f0800000000000000000000000000000000a2
:0a15220000000000000000000000bf
:20152c0040040000000000000000000000000000000000000000000000000000000000005b
:09154c0000000000000000000096
:201555000003a00000000000000000000000000000000000000000000000000000000000d3
:0a157500000000000000000000006c
:20157f0000000000000000000000000000000000000000000000000000000000000000004c
:09159f0000000000000000000043
:2015a80008000000000000000000000000000000000000000000000000000000000000001b
:0a15c8000000000000000000000019
:2015d200700000000000000000000000000000000000000000000000000000000000000089
:0915f200000000000000000000f0
:2015fb0001800000000000000000000000000000000000000000000000000000000000004f
:0a161b0000000000000000000000c5
:201625000003000000000000000000000000000000000000000000000000000000000000a2
:091645000000000000000000009c
:20164e0000000000000000000000000000000000000000000000000000000000000000007c
:0a166e000000000000000000000072
:20167800000000000000000000000000000000000000000000000000000000000000000052
:0916980000000000000000000049
:2016a100000000000000000000000000000000000000000000000000000000000000000029
:0a16c100000000000000000000001f
:2016cb000004000000000000000000000000000000000000000000000000000000000000fb
:0916eb00000000000000000000f6
:2016f400000380000000000000000040000000000000000000000000000000000000000013
:0a17140000000000000000000000cb
:20171e000000000000000000000000000000000000000000000000000000000000000000ab
:09173e00000000000000000000a2
:2017470008000000000000000000000000000000000000000000000000000000000000007a
:0a1767000000000000000000000078
:20177100000000000000000000004000000000000000000000000000000000000000000018
:091791000000000000000000004f
:20179a0010000000000000000000000000000000000000000000000000000000000000001f
:0a17ba000000000000000000000025
:0217c400000023
:0217c60011010f
:0217c80001011d
:2017ca000000000000000000000000000000000000000000000000000000000000000000ff
:0917ea00000000000000000000f6
:2017f3000000000000000000000000000000000000000000000000000000000000000000d6
:0a18130000000000000000000000cb
:20181d000000000000000000000000000000000000000000000000000000000000000000ab
:09183d00000000000d0000000095
:20184600000000000000000000000000000000000000000000000000000000000000000082
:0a18660000000000008000000000f8
:20187000000000000000000000000000000000000000000000000000000000000000000058
:091890000000000000000000004f
:2018990000000000000000000000000000000000000000000000000000000000000000002f
:0a18b9000000000000000000000025
:2018c300000000000000000000000000100000000000004000000000100000000000004065
:0918e300000000000001000000fb
:2018ec000000000000000000000000000000000000000000000000000000000000000000dc
:0a190c0000000000000000000000d1
:2019160000000000000c0000000000001000000000000040000000003000000000000040e5
:09193600000000000001000000a7
:20193f00000000000000000000000000000000000000000000000000000000000000000088
:0a195f00000000000000000000007e
:201969000000000000000000000000000000000000000000000000500010000000000000fe
:0919890000000000000000c00095
:201992000000000000000000000000000000000000000000000080080001000000000000ac
:0a19b2000000000000000004000027
:2019bc0000000000000000000000000000000000000000000000000000000000000000000b
:0919dc0000000000000000000002
:2019e500000000100001000000000000000000000000000000004000000000000000000091
:0a1a050000000000000000000000d7
:201a0f000000010000000000000000000000000000000000000000000000000000000000b6
:091a2f00000000000000000000ae
:201a380000000000000000000000000000000000000000000000800000000000000000000e
:0a1a58000000000000000000000084
:201a6200000000000000000000000000000000000000000000000000000000000000000064
:091a82000000000000000000005b
:201a8b0000000000000000000000000000000000000000000000000000000000000000003b
:0a1aab000000000000000000000031
:201ab500000000000000000000000000000000000000000000000000000000000000000011
:091ad50000000000000000000008
:201ade000000000000000000000000000000000000000000000000000000000000000000e8
:0a1afe0000000000000000000000de
:201b08000000000000000000000000000000000000000000000000000000000000000000bd
:091b2800000000000000000000b4
:201b3100000000000000000000000000000000000000000000000000000000000000000094
:0a1b5100000000000000000000008a
:201b5b00000200000000000000000000000000000000000000000000000000000000000068
:091b7b0000000000000000000061
:201b8400000000000000000000000000000000000000000000000000000000000000000041
:0a1ba4000000000000000000000037
:201bae00000000000000000000000000000000000000000000000000000000000000000017
:091bce000000000000000000000e
:201bd7000000200000000000000000000000000000000000000000000000000000000000ce
:0a1bf70000000000000000000000e4
:201c01000000000000000000000000000000000000000000000000000000000000000000c3
:091c2100000000000000000000ba
:201c2a0000000000000000000000000000000000000000000000000000000000000000009a
:0a1c4a000000000000000000000090
:201c5400000000000000000000000000000000000000000000000000000000000000000070
:091c740000000000000000000067
:201c7d00000000000000000000000000000000000000000000000000000000000000000047
:0a1c9d00000000000000000000003d
:201ca70000000000000000000000000000000000000000000000000000000000000000001d
:091cc70000000000000000000014
:201cd0000000000000000000000000000000000000000000000000000000000000000000f4
:0a1cf00000000000000000000000ea
:201cfa000000000000000000000000000000000000000000000000000000000000000000ca
:091d1a00000000000000000000c0
:201d23000000000000000000000000000000000000000000000000000000000000000000a0
:0a1d43000000000000000000000096
:201d4d00000000000000000000000000000000000000000000000000000000000000000076
:091d6d000000000000000000006d
:201d760000000000000000000000000000000000000000000000000000000000000000004d
:0a1d96000000000000000000000043
:201da000000000000000000000000000000000000000000000000000000000000000000023
:091dc0000000000000000000001a
:201dc9000000000000000000000000000000000000000000000000000000000000000000fa
:0a1de90000000000000000000000f0
:201df3000002000000000000000000000000000000000000000000000000000000000000ce
:091e1300000000000000000000c6
:201e1c000000000000000000000000000000000000000000000000000000000000000000a6
:0a1e3c00000000000000000000009c
:201e460000000000000000000000000000000000000000000000000000000000000000007c
:091e660000000000000000000073
:201e6f00000020000000000000000000000000000000000000000000000000000000000033
:0a1e8f000000000000000000000049
:201e9900000000000000000000000000000000000000000000000000000000000000000029
:091eb90000000000000000000020
:201ec200000000000000000000000000000000000000000000000000000000000000000000
:0a1ee20000000000000000000000f6
:201eec000000000000000000000000000000000000000000000000000000000000000000d6
:091f0c00000000000000000000cc
:201f15000000000000000000000000000000000000000000000000000000000000000000ac
:0a1f350000000000000000000000a2
:201f3f0000000000000000000000000000000000040000000000000000000000000000007e
:091f5f0000000000000000000079
:201f6800000000000000000000000000000000000000000000000000000000000000000059
:0a1f8800000000000000000000004f
:201f920000000000000000000000000000000000000000000000000000000000000000002f
:091fb20000000000000000000026
:201fbb00000000000000000000000000000000000000000000000000000000000000000006
:0a1fdb0000000000000000000000fc
:201fe5000000000000000000000000000000000000000000000000000000000000000000dc
:09200500000000000000000000d2
:20200e000000000000000000000000000000000000000000000000000000000000000000b2
:0a202e0000000000000000000000a8
:20203800000000000000000000000000000000000000000000000000000000000000000088
:092058000000000000000000007f
:2020610000000000000000000000000000000000000000000000000000000000000000005f
:0a2081000000000000000000000055
:20208b00000200000000000000000000000000000000000000000000000000000000000033
:0920ab000000000000000000002c
:2020b40000000000000000000000000000000000000000000000000000000000000000000c
:0a20d4000000000000000000000002
:2020de000000000000000000000000000000000000000000000000000000000000000000e2
:0920fe00000000000000000000d9
:20210700000020000000000000000000000000000000000000000000000000000000000098
:0a21270000000000000000000000ae
:2021310000000000000000000000000000000000000000000000000000000000000000008e
:0921510000000000000000000085
:20215a00000000000000000000000000000000000000000000000000000000000000000065
:0a217a00000000000000000000005b
:2021840000000000000000000000000000000000000000000000000000000000000000003b
:0921a40000000000000000000032
:2021ad00000000000000000000000000000000000000000000000000000000000000000012
:0a21cd000000000000000000000008
:2021d7000000000000000000000000000000000000000000000000000000000000000000e8
:0921f700000000000000000000df
:202200000000000000000000000000000000000000000000000000000000000000000000be
:0a22200000000000000000000000b4
:20222a00000000000000000000000000000000000000000000000000000000000000000094
:09224a000000000000000000008b
:2022530000000000000000000000000000000000000000000000000000000000000000006b
:0a2273000000000000000000000061
:20227d00000000000000000000000000000000000000000000000000000000000000000041
:09229d0000000000000000000038
:2022a600000000000000000000000000000000000000000000000000000000000000000018
:0a22c600000000000000000000000e
:2022d0000000000000000000000000000000000000000000000000000000000000000000ee
:0922f000000000000000000000e5
:2022f9000000000000000000000000000000000000000000000000000000000000000000c5
:0a23190000000000000000000000ba
:20232300000200000000000000000000000000000000000000000000000000000000000098
:0923430000000000000000000091
:20234c00000000000000000000000000000000000000000000000000000000000000000071
:0a236c000000000000000000000067
:20237600000000000000000000000000000000000000000000000000000000000000000047
:092396000000000000000000003e
:20239f000000200000000000000000000000000000000000000000000000000000000000fe
:0a23bf000000000000000000000014
:2023c9000000000000000000000000000000000000000000000000000000000000000000f4
:0923e900000000000000000000eb
:2023f2000000000000000000000000000000000000000000000000000000000000000000cb
:0a24120000000000000000000000c0
:20241c000000000000000000000000000000000000000000000000000000000000000000a0
:09243c0000000000000000000097
:20244500000000000000000000000000000000000000000000000000000000000000000077
:0a246500000000000000000000006d
:20246f00000000000000000000000000000000000400000000000000000000000000000049
:09248f0000000000000000000044
:20249800000000000000000000000000000000000000000000000000000000000000000024
:0a24b800000000000000000000001a
:2024c2000000000000000000000000000000000000000000000000000000000000000000fa
:0924e200000000000000000000f1
:2024eb000000000000000000000000000000000000000000000000000000000000000000d1
:0a250b0000000000000000000000c6
:202515000000000000000000000000000000000000000000000000000000000000000000a6
:092535000000000000000000009d
:20253e0000000000000000000000000000000000000000000000000000000000000000007d
:0a255e000000000000000000000073
:20256800004000000000000000000000000000000000000000000000000000000000000013
:092588000000000000000000004a
:202591000006800000000000000000000000000000000000000000000000000000000000a4
:0a25b1000000000000000000000020
:2025bb000002000000000000000000000000000000000000000000000000000000000000fe
:0925db00000000000000000000f7
:2025e4000000000000000000000000000000000000000000000000000000000000000000d7
:0a26040000000000000000000000cc
:20260e000000000000000000000000000000000000000000000000000000000000000000ac
:09262e00000000000000000000a3
:20263700000020000000000000000000000000000000000000000000000000000000000063
:0a2657000000000000000000000079
:202661000c000000000000000000000000000000000000000000000000000000000000004d
:0926810000000000000000000050
:20268a000440000000000000000000000000000000000000000000000000000000000000ec
:0a26aa000000000000000000000026
:2026b400800000000000000000000000000000000000000000000000000000000000000086
:0926d400000000000000000000fd
:2026dd000000000000000000000000000000000000000000000000000000000000000000dd
:0a26fd0000000000000000000000d3
:202707000002000000000000000000000000000000000000000000000000000000000000b0
:09272700000000000000000000a9
:20273000040000000000000000000000000000000000000000000000000000000000000085
:0a275000000000000000000000007f
:20275a0000000000000000000000000000000000000000000000000000000000000000005f
:09277a0000000000000000000056
:20278300000000000000000000000000000000000000000000000000000000000000000036
:0a27a300000000000000000000002c
:2027ad0000000000000000000000000000000000000000000000000000000000000000000c
:0927cd0000000000000000000003
:2027d6000000000000000000000000000000000000000000000000000000000000000000e3
:0a27f60000000000000000000000d9
:202800000000000000000000000000000000000000000000000000000000000000000000b8
:09282000000000000000000000af
:2028290000000000000000000000000000000000000000000000000000000000000000008f
:0a2849000000000000000000000085
:20285300000200000000000000000000000000000000000000000000000000000000000063
:092873000000000000000000005c
:20287c0000000000000000000000000000000000000000000000000000000000000000003c
:0a289c000000000000000000000032
:2028a600000000000000000000000000000000000000000000000000000000000000000012
:0928c60000000000000000000009
:2028cf000000200000000000000000000000000000000000000000000000000000000000c9
:0a28ef0000000000000000000000df
:2028f9000000000000000000000000000000000000000000000000000000000000000000bf
:09291900000000000000000000b5
:20292200000000000000000000000000000000000000000000000000000000000000000095
:0a294200000000000000000000008b
:20294c0000000000000000000000000000000000000000000000000000000000000000006b
:09296c0000000000000000000062
:20297500000000000000000000000000000000000000000000000000000000000000000042
:0a2995000000000000000000000038
:20299f00000000000000000000000000000000000400000000000000000000000000000014
:0929bf000000000000000000000f
:2029c8000000000000000000000000000000000000000000000000000000000000000000ef
:0a29e80000000000000000000000e5
:2029f2000000000000000000000000000000000000000000000000000000000000000000c5
:092a1200000000000000000000bb
:202a1b0000000000000000000000000000000000000000000000000000000000000000009b
:0a2a3b000000000000000000000091
:202a4500000000000000000000000000000000000000000000000000000000000000000071
:092a650000000000000000000068
:202a6e00000000000000000000000000000000000000000000000000000000000000000048
:0a2a8e00000000000000000000003e
:202a980000000000000000000000000000000000000000000000000000000000000000001e
:092ab80000000000000000000015
:202ac1000000000000000000000000000000000000000000000000000000000000000000f5
:0a2ae10000000000000000000000eb
:202aeb000002000000000000000000000000000000000000000000000000000000000000c9
:092b0b00000000000000000000c1
:202b14000000000000000000000000000000000000000000000000000000000000000000a1
:0a2b34000000000000000000000097
:202b3e00000000000000000000000000000000000000000000000000000000000000000077
:092b5e000000000000000000006e
:202b670000002000000000000000000000000000000000000000000000000000000000002e
:0a2b87000000000000000000000044
:202b9100000000000000000000000000000000000000000000000000000000000000000024
:092bb1000000000000000000001b
:202bba000000000000000000000000000000000000000000000000000000000000000000fb
:0a2bda0000000000000000000000f1
:202be4000000000000000000000000000000000000000000000000000000000000000000d1
:092c0400000000000000000000c7
:202c0d000000000000000000000000000000000000000000000000000000000000000000a7
:0a2c2d00000000000000000000009d
:202c370000000000000000000000000000000000000000000000000000000000000000007d
:092c570000000000000000000074
:202c6000000000000000000000000000000000000000000000000000000000000000000054
:0a2c8000000000000000000000004a
:202c8a0000000000000000000000000000000000000000000000000000000000000000002a
:092caa0000000000000000000021
:202cb300000000000000000000000000000000000000000000000000000000000000000001
:0a2cd30000000000000000000000f7
:202cdd000000000000000000000000000000000000000000000000000000000000000000d7
:092cfd00000000000000000000ce
:202d06000000000000000000000000000000000000000000000000000000000000000000ad
:0a2d260000000000000000000000a3
:202d300000280000000000000000000000000000000000000000000000000000000000005b
:092d50000000000000000000007a
:202d590000004000000000000000000000000000000000000000000000000000000000001a
:0a2d79000000000000000000000050
:202d830000020000000000000000000000000000000000000000000000000000000000002e
:092da30000000000000000000027
:202dac00000000000000000000000000000000000000000000000000000000000000000007
:0a2dcc0000000000000000000000fd
:202dd6000000000000000000000000000000000000000000000000000000000000000000dd
:092df600000000000000000000d4
:202dff00000020000000000000000000000000000000000000000000000000000000000094
:0a2e1f0000000000000000000000a9
:202e2900100000000000000000000000000000000000000000000000000000000000000079
:092e490000000000000000000080
:202e520003000000000000000000000000000000000000000000000000000000000000005d
:0a2e72000000000000000000000056
:202e7c00000000000000000000000000000000000000000000000000000000000000000036
:092e9c000000000000000000002d
:202ea50000000000000000000000000000000000000000000000000000000000000000000d
:0a2ec5000000000000000000000003
:202ecf000000000000000000000000000000000004000000000000000000000000000000df
:092eef00000000000000000000da
:202ef8000000000000000000000000000000000000000000000000000000000000000000ba
:0a2f180000000000000000000000af
:022f22000000ad
:022f2400110298
:022f26000101a7
:202f2800000000000000000000000000000000000000000000000000000000000000000089
:092f480000000000000000000080
:202f5100000000000000000000000000000000000000000000000000000000000000000060
:0a2f71000000000000000000000056
:202f7b00000000000000000000000000000000000000000000000000000000000000000036
:092f9b000000000000000000002d
:202fa40000000000000000000000000000000000000000000000000000000000000000000d
:0a2fc4000000000000000000000003
:202fce000000000000000000000000000000000000000000000000000000000000000000e3
:092fee00000000000000000000da
:202ff7000000000000000000000000000000000000000000000000000000000000000000ba
:0a30170000000000000000000000af
:203021000000000000080000000000002000000000080000000000002000000000000080bf
:0930410000000000000200000084
:20304a00000000000000000000000000000000000000000000000000000000000000000066
:0a306a00000000000000000000005c
:2030740000000000000800000000000020000000000800000000000020000000000000806c
:0930940000000000010200000030
:20309d00000000000000000000000000000000000000000000000000000000000000000013
:0a30bd000000000000000000000009
:2030c7000000000000000000000000000000000000000000000000000000000000000000e9
:0930e700000000000000000000e0
:2030f0000000000000000000000000000000000000000000000000000000000000000000c0
:0a31100000000000000000000000b5
:20311a00000000000000000000000000000000000000000000000000000000000000000095
:09313a000000000000000000008c
:2031430000000000000000000000000000000000000000000000000000000000000000006c
:0a3163000000000000000000000062
:20316d00000000000000000000000000000000000000000000000000000000000000000042
:09318d0000000000000000000039
:20319600000000000000000000000000000000000000000000000000000000000000060013
:0a31b600000000000000000000000f
:2031c0000000000000000000000000000000000000000000000000000000000002507b0022
:0931e00004000004000e000000d0
:2031e90000000000000000000000000000000000000000000800000000000000010000a01d
:0a32090002050000000c00000000a8
:2032130000000000000000000000000000000000000000000000000000000000000000009b
:093233000000600c284f000001ae
:20323c008000000000000000000000000000000000000000000000000000000000000000f2
:0a325c00000000002800bd00000083
:20326600000000000000000000000000000000000000000000000000000000000000000048
:093286000000300c284b980000f8
:20328f00c0000000000000000000000000000000000000000000000000000000000000005f
:0a32af00000000002801910000005b
:2032b9000002000000000000000000000000000000000000000000000000000000000000f3
:0932d90000000008284b00000071
:2032e2000000000000000000000000000000000000000000000000000000000000000000cc
:0a330200000000002801bd000000db
:20330c000000000000000000000000000000000000000000000000000000000000000000a1
:09332c0028000000000000100060
:20333500000020000000000000000000000000000000000000000000000000000000000058
:0a335500040000000000000a000060
:20335f0000000000000000000000000000000000000000000000000000000000000000004e
:09337f0000000000000000000045
:20338800000000000000000000000000000000000000000000000000000000000000000025
:0a33a800000000000000000000001b
:2033b2000000000000000000000000000000000000000000000000000000000000000000fb
:0933d20000000000000001800071
:2033db000000000000000000000000000000000000000000000000000000000000000000d2
:0a33fb00000000000000000b0000bd
:203405000000000000000000000000000000000000000000000000000000000000000000a7
:093425000000000000000000009e
:20342e0000000000000000000000000000000000000000000000000000000000000000037b
:0a344e004000000000000000000034
:203458000000000000000000000000000000000000000000004083d40000000002467a46b5
:0934780064000000000050100087
:2034810000000000000000000000000000000000000000000000083c20000000002831a0ce
:0a34a100020000000000010a000014
:2034ab000000000000000000000083dc0000001800000000000000000000001802a01f00b1
:0934cb0004006001014801a001a8
:2034d40080000000000000000000083c00000000000000000000000000000000002550603f
:0a34f400028000000024b90000006f
:2034fe000000000000000000000000000000000c00000000000000000800000c02047bc04d
:09351e0000000000000000a00004
:2035270000000000000000000000000000000000400000000000000000500000c02a7be0af
:0a3547000000000000000500000075
:203551000002000000000000000000000000000000000000000000000000000002a19f0016
:0935710000000000000000100041
:20357a00000000000000000000000000000000000000000000000000000000000025176491
:0a359a00000000000000000a00001d
:2035a400000000000000000000000000000000000000000000000000000000000000000007
:0935c4000000000023fc000000df
:2035cd000000200000000000000000000000000000000000000000000000000000000001bd
:0a35ed0040000020002590000000bf
:2035f700000000000000000000000000000000000000000000000000000000018205705c60
:0936170000000000000018000092
:20362000000000000000000000000000000000000000000000000000000000002030a0b5e5
:0a3640004000000000000000000040
:20364a00000000000000000000000000001800000000000000000000010000000000002621
:09366a0000000002807a0000005b
:20367300000000000000000000000000000000000000000000000000000000000000000037
:0a36930060000000280000000000a5
:20369d000000000000000000000000000000000c00000000000000000000000c00000000f5
:0936bd000040300b0e5900000022
:2036c600000000000000000000000000000000004000000000000000000000004000000163
:0a36e6004280010024efe00a00001a
:2036f00000000020f7006000000010ace00000000000000000000000000000000010107413
:093710006800000a394e000200b5
:20371900000000020f00000000004203da000000000000000800000000000000000205bd94
:0a3739006000000003f5e00000004e
:2037430000000020f50000000e000000000000180000000000000000000a001840001f406a
:093763000400600bc1c058000114
:20376c00800000020f080000000000000000000000000000000000000001000000802033d0
:0a378c00420000003c0000000000b5
:2037960000000020f10160000300a94ce00a000c000000000000015cc000000000693816df
:0937b6002c00000aa9cc18100037
:2037bf00c00000820f08000000100d7c1c00000040000000000000001e000000000960bc59
:0a37df000680000003c2b0080000dd
:2037e90000020020f5806600000090800000000000000000000000000180000042c11a868f
:093809000000000aa9ca800000b9
:20381200000000020f08000000000a07cc000000000000000000000000000000000c302440
:0a38320002c000002a81050000001a
:20383c00000000000000000000000000001f0000000000000000281cc18100000000df00e8
:09385c0000004000157801800015
:203865000000200000000000000000000000a00000000000070002bc1e0890000008097c7b
:0a38850000000000014300000000f5
:20388f0000000020f70000000000000000000000000000000000005cc000000140015a56f4
:0938af00280000000000000000e8
:2038b800000000020f00000000000000000000000000000000000003cd000000004000fcd3
:0a38d80002400000000000000000a4
:2038e20000000000000006400000000008000000000000000010081f8819008000201206e8
:09390200000000000000818000bb
:20390b0000000000000000340000000000100000000000000000008000919004000005ac02
:0a392b000000000000000100000091
:2039350000000020f5800000030000000780000c000000000000bc160001000000307826a6
:0939550000000000000000000069
:20395e00000000020f000000001000000008000040000000000003c02000d00000030580a5
:0a397e0060000000000000000000df
:2039880000000000000142800040807cc000000000000000000183d40700000001000600fa
:0939a80000000000000000000016
:2039b100000000000000164000000c01e800b000000000000000083c2000000000000d404a
:0a39d10000000000000000000000ec
:2039db000000000d156940000000000000000018000000000000000000000018130f138616
:0939fb0000506000000000000013
:203a040000000000da12f4000000000000000000000000000000000000d00000000f0000e3
:0a3a24002000000000000000000078
:203a2e000000000529e942800000000007800008000000000000000000010000010f169455
:093a4e000000000000000000006f
:203a570000000000009bf4000000000000000000c00000000000000000d0f000000f0040f1
:0a3a77000000000000000000000045
:203a8100000200000000028000000000000000000000000000000000000a0000130f13a0c2
:093aa10000600013fc00000000ad
:203aaa00000000000000002c0000000000000000000000000000000000010000000f004080
:0a3aca00428000003fc00000000031
:203ad400000000000000000000000000001a000000000000000000000000000002aa178075
:093af400000000000000000000c9
:203afd0000002000000000000040000000000001000000000000000000000001000aa0009d
:0a3b1d00000004000000000000108a
:203b27000000000d1d20000000000000000000000000000000008807b018000000000000dd
:093b4700800000000000000000f5
:203b500000000000da7e4000000000000000000000000000000009c26c0000000000000086
:0a3b70000000040000000000001037
:203b7a000000000000006000000000000800400000000000000083d40000000002a55ba684
:093b9a00600000000000000000c2
:203ba30000000000000002000040000000500a01000000000000183c00000001000a1f786f
:0a3bc30040000400000000000000b4
:203bcd00000000000000004000000000001a000c00000000000000000000000c0000000066
:093bed00040000000000000000cb
:203bf6000000000000000034004000000000000140000000000000000000000040000000ba
:0a3c160002000000000000000000a2
:203c200000000020f70000000000344fc0000000000000000001a040180000000085be40ae
:093c40000070000000000000000b
:203c4900000000020f0000000000036b6c000000000000000900190a491000000004017b6b
:0a3c69004000000000000000000011
:203c730000000020f78160400600000000000000000000000001814e800100180000002e5c
:093c9300040000000000800001a3
:203c9c00800000020f0002340000000000000000000000000000181410d0b0000000000184
:0a3cbc00428000000000010000003b
:203cc60000000020f1800000030000000500000000000000004191cdb00000200007ff00d0
:093ce60038000001417a001000d1
:203cef00000000020f08000000100000000800000000000000000b1e4b000000000029a83f
:0a3d0f00040000001401000b000086
:203d190000020020f7006000000000000000000000000000000181468d8000000000001e1e
:093d390000050100016d500000bd
:203d4200000000020f080001400000000000000000000000000018141030b00000000000eb
:0a3d6200000020002003ed8b00009c
:203d6c0000000020f380000000000000000100000000000000000000000e00000000000095
:093d8c000000012895cb000000a5
:203d9500000020120f000000004000000000a00100000000000000000000e001000000000b
:0a3db50000000400abc0d5000010b0
:203dbf0000000020f581e60000000000059a0000000000000001a3eff801000000507f145a
:093ddf00200000000000000000bb
:203de800000000020f08000010000000000000000000000000000abf6a10e000000500006a
:0a3e080026c00000000005000000c5
:203e120000000020f381e0000000000000000000000000000000800de000000040007f00f0
:093e32000000000b9fef8010005e
:203e3b00000000020f08023c00400000000000010000000000004c140c00000100040064fa
:0a3e5b0000000401b067d50a001052
:203e650000000020f1800780030000000000000000000000000000000019010c000a5a8018
:093e85002800000000008000008c
:203e8e00c00000020f000000005000000000000100000000000000000000d0084800a083af
:0a3eae004780000000000509000431
:203eb800000000000000000000000000000000000000000000000000058000000085fa00e6
:093ed80068000000000000000079
:203ee1000000000000000000000000000000000000000000000000000000000000080b3777
:0a3f010042c00000000000000000b4
:203f0b00000000000000000006000000000000180000000000000000080000180000002038
:093f2b00640000083c6000100174
:203f340080000000000000000000000000000000000000000000000000500000000000029b
:0a3f54004680008083c000080000d2
:203f5e000000000000000000030000000000000c0000000000000000000000000050522072
:093f7e00000000083cc000000036
:203f8700c000000000000000001000000000000040000000000000000000b004000000a1b5
:0a3fa7004000008083c00000000c01
:203fb1000002000000000000000083dc0000000000000000000000000000000040025a767d
:093fd100280000000000000000bf
:203fda0000000000000000000000083c20000000000000000000000000d000000000006d26
:0a3ffa00400000000000000000007d
:20400400000000000000000000000000000000000000000020200296a00000000007d7a0a6
:09402400000000083ce0018000ee
:20402d0000002000000000000000000000000000000000000002102820000000000023b71f
:0a404d004000000083c005000000e1
:2040570000000000000000000000000000000000000000000010014fd80000000000de8ea5
:09407700000000083ce099800003
:204080000000000000000000000000000000000000000000000000242f70e00000008d7f71
:0a40a0006240000083c2010000002e
:2040aa0000000020f78000000000000007000000000000000010a845f000000000501860a3
:0940ca00000000083ce078000051
:2040d300000000120f08000000000000000800000000000000000b9c39000000000a00248e
:0a40f3004000000083c2000000003e
:2040fd000000000000000000030000000000000c00000000000000000800400c00079b405e
:09411d00040000083cc000000091
:20412600c000000000003c00001000000000000040000000000000000010080040001b7842
:0a4146000280000183c200000004a3
:204150000000000000000300000000000000000000000000000083de00000002022f5780e1
:0941700000000000000000a000a6
:2041790000000000000000000000000000000000000000000800483c200000000020b37433
:0a4199000000000000000500000017
:2041a30000000045a0040000000000000000000000000000000000000001001800000020da
:0941c300600060000000d0000162
:2041cc0080000000a5038000000000000000000000000000000000000000800000000000ab
:0a41ec00c28000000000090000007e
:2041f600000000000000000000000000000000000000000000418156e0000000020ff78029
:0942160004000000000018100073
:20421f000000000000000000000000000000000000000000000008140000b0000128b9f0e1
:0a423f00020000000000000900006a
:20424900000200000000000000000000000000000000000000000000001b00000000001424
:094269002c00000042db00a00063
:204272000000000000000000000000000000000000000000000000000000800000000001ab
:0a429200468000000036950a000087
:20429c0000000005a02000000000000000000000000000000020b9eeb000000202e7dee01d
:0942bc00040001010168801000fa
:2042c500000020805a00000000000000000000000000000000000b044d000000002c2362d2
:0a42e500428000000000c50a00003e
:2042ef000000000000000000000000000000000000000000000281560d99000002e7dec0a9
:09430f0004000000214900000037
:20431800000000000000000000000000000000c000000000000808280e99e000082c116c55
:0a43380002000000001fa0000000ba
:204342000000000000000000000000000000000000000000000083ce000000000000002edc
:0943620000000108955f00120043
:20436b0000000000000000000000000000000000000000000000483c2000d00000000000be
:0a438b0040000001abc1900a0000e1
:2043950000000000000000400000000000000000000000000081814e0800000c12053ba072
:0943b5000000300000008000004f
:2043be00c000000000000030020000000000000000000000000008280e100000602050418e
:0a43de00400001000000010000048f
:2043e8000030000000000000000000000000000000000000000001fcb000000000000000d8
:09440800000000000000000000ab
:20441100000000000000000000000000000000000000000000000009e8000000000000009a
:0a4431000000000000000000000081
:20443b00000000000000000000000000000000000000000000000000000000000000000061
:09445b00700000000000000000e8
:204464000000000000000000000000000000000000000000000000000000e0000000000058
:0a448400040000000000000000002a
:20448e00200000000000000000000000000000000000000000000000000000000000000ee0
:0944ae0000000000000000000005
:2044b7000000000000000000000000000000000000000000000000000000e0000000000005
:0a44d7002280000000000000000039
:2044e1000002000000000000000000000000000000000000000000000000000000000000b9
:09450100000000000000000000b1
:20450a00000000000000000000000000000000000000000000000000000000000000000091
:0a452a000000000000000000000087
:20453400000000000000000000000000000000000000000000000000000000000000000067
:094554000000000000000000005e
:20455d0000002000000000000000000000000000000000000000000000000000000000001e
:0a457d000000000000000000000034
:2045870000000000000000000000000000000000000000000000000000000000000872c0da
:0945a7000000000000000000000b
:2045b00000000000000000000000000000000000000000000000000000000000000005e006
:0a45d00000000000000000000000e1
:2045da000000000000000000000000000000000000000000000000000800000000000006b3
:0945fa0000008000000000000038
:20460300000000000000000000000000000000000000000000000000009000000000000007
:0a4623002000080000000000000065
:20462d00000000000000000000000000000000000000000000000000001c00000000000051
:09464d0000000000000000000064
:20465600000000000000000000000000000000000000000000000000000000000000000044
:0a467600000000000000000000003a
:02468000000038
:02468200110322
:02468400010132
:20468600000000000000000000000000000000000000000000000000000000000000000014
:0946a6000000000000000000000b
:2046af000000000000000000000000000000000000000000000000000000000000000000eb
:0a46cf0000000000000000000000e1
:2046d9000000000000000000000000000000000000000000000000000000000000000000c1
:0946f900000000000000000000b8
:20470200000000000000000000000000000000000000000000000000000000000000000097
:0a472200000000000000000000008d
:20472c0000000000000000000000000000000000000000000000000000000000000000006d
:09474c0000000000000000000064
:20475500000000000000000000000000000000000000000000000000000000000000000044
:0a477500000000000000000000003a
:20477f0000000000000800000000000020000000000800000000000020000000000000804a
:09479f000000000000020000000f
:2047a8000000000000000000000000000000000000000000000000000000000000000000f1
:0a47c80000000000000000000000e7
:2047d2000000000000080000000000002000000000080000000000002000000000000080f7
:0947f200000000000002000000bc
:2047fb0000000000000000000000000000000000000000000000000000000000000000009e
:0a481b000000000000000000000093
:20482500000000000000000000000000000000000000000000000000000000000000000073
:094845000000000000000000006a
:20484e0000000000000000000000000000000000000000000000000000000000000000004a
:0a486e000000000000000000000040
:20487800000000000000000000000000000000000000000000000000000000000000000020
:0948980000000000000000000017
:2048a1000000000000000000000000000000000000000000000000000000000000000000f7
:0a48c10000000000000000000000ed
:2048cb000000000000000000000000000000000000000000000000000000000000000000cd
:0948eb00000000000000000000c4
:2048f4000000000000000000000000000000000000000000000000000000000000000000a4
:0a4914000000000000000000000099
:20491e00000000000000000000000000000000000000000000000000000000000000000079
:09493e0000000000000000000070
:20494700000000000000000000000000000000000000000000000000000000000000000050
:0a4967000000000000000000000046
:20497100000000000000000000000000000000000000000000000000000000000000000026
:094991000000000000000000001d
:20499a000000000000000000000000000000000000000000000000000000000000000000fd
:0a49ba0000000000000000000000f3
:2049c4000000000000000000000000000000000000000000000000000000000000000000d3
:0949e400000000000000000000ca
:2049ed000000000000000000000000000000000000000000000000000000000000000000aa
:0a4a0d00000000000000000000009f
:204a170000020000000000000000000000000000000000000000000000000000000000007d
:094a370000000000000000000076
:204a4000000000000000000000000000000000000000000000000000000000000000000056
:0a4a6000000000000000000000004c
:204a6a0000000000000000000000000000000000000000000000000000000000000000002c
:094a8a0000000000000000000023
:204a93000000200000000000000000000000000000000000000000000000000000000000e3
:0a4ab30000000000000000000000f9
:204abd000000000000000000000000000000000000000000000000000000000000000000d9
:094add00000000000000000000d0
:204ae6000000000000000000000000000000000000000000000000000000000000000000b0
:0a4b060000000000000000000000a5
:204b1000000000000000000000000000000000000000000000000000000000000000000085
:094b30000000000000000000007c
:204b390000000000000000000000000000000000000000000000000000000000000000005c
:0a4b59000000000000000000000052
:204b6300000000000000000000000000000000000000000000000000000000000000000032
:094b830000000000000000000029
:204b8c00000000000000000000000000000000000000000000000000000000000000000009
:0a4bac0000000000000000000000ff
:204bb6000000000000000000000000000000000000000000000000000000000000000000df
:094bd600000000000000000000d6
:204bdf000400000000000000000000000000000000000000000000000000000000000000b2
:0a4bff0000000000000000000000ac
:204c090080000000000000000000000000000000000000000000000000000000000000000b
:094c290000000000000000000082
:204c3200000000000000000000000000000000000000000000000000000000000000000062
:0a4c52000000000000000000000058
:204c5c00000000000000000000000000000000000000000000000000000000000000000038
:094c7c000000000000000000002f
:204c850004000000000000000000000000000000000000000000000000000000000000000b
:0a4ca5000000000000000000000005
:204caf000000000000000000000000000000000000000000000000000000000000000000e5
:094ccf00000000000000000000dc
:204cd8000000000000000000000000000000000000000000000000000000000000000000bc
:0a4cf80000000000000000000000b2
:204d0200000000000000000000000000000000000000000000000000000000000000000091
:094d220000000000000000000088
:204d2b00000030000000000000000000000000000000000000000000000000000000000038
:0a4d4b00000000000000000000005e
:204d550000000000000000000000000000000000000000000000000000000000000000003e
:094d750000000000000000000035
:204d7e00000000000000000000000000000000000000000000000000000000000000000015
:0a4d9e00000000000000000000000b
:204da80080000000000000000000000000000000000000000000000000000000000000006b
:094dc800000000000000000000e2
:204dd1000800000000000000000000000000000000000000000000000000000000000000ba
:0a4df10000000000000000000000b8
:204dfb0080020000000000000800000000000000000000008000000000000000000000008e
:094e1b000000800000000000000e
:204e24000000000000000000008000000000000000000000000000000000000000000000ee
:0a4e4400000008000000000000005c
:204e4e00000000000000000000000000000000000000000000000000000000000000000044
:094e6e000000000000000000003b
:204e770000000000000000000000000000000000000000000000000000000000000000001b
:0a4e97000000000000000000000011
:204ea1000000000000000000000000000000000000000000000000000000000000000000f1
:094ec100000000000000000000e8
:204eca000000000000000000000000000000000000000000000000000000000000000000c8
:0a4eea0000000000000000000000be
:204ef40000000000000000000000000000000000000000000000000000000000000000009e
:094f140000000000000000000094
:204f1d00000000000000000000000000000000000000000000000000000000000000000074
:0a4f3d00000000000000000000006a
:204f4700000200000000000000000000000000000000000000000000000000000000000048
:094f670000000000000000000041
:204f7000000000000000000000000000000000000000000000000000000000000000000021
:0a4f90000000000000000000000017
:204f9a000000000000000000000000000000000000000000000000000000000000000000f7
:094fba00000000000000000000ee
:204fc3000000200000000000000000000000000000000000000000000000000000000000ae
:0a4fe30000000000000000000000c4
:204fed000000000000000000000000000000000000000000000000000000000000000000a4
:09500d000000000000000000009a
:2050160000000000000000000000000000000000000000000000000000000000000000007a
:0a5036000000000000000000000070
:20504000000000000000000000000000000000000000000000000000000000000000000050
:0950600000000000000000000047
:20506900000000000000000000000000000000000000000000000000000000000000000027
:0a508900000000000000000000001d
:205093000000000000000000000000000000000000000000000000000000000000000000fd
:0950b300000000000000000000f4
:2050bc000000000000000000000000000000000000000000000000000000000000000000d4
:0a50dc0000000000000000000000ca
:2050e6000000000000000000000000000000000000000000000000000000000000000000aa
:09510600000000000000000000a0
:20510f00000000000000000000000000000000000000000000000000000000000000000080
:0a512f000000000000000000000076
:20513900000000000000000000000000000000000000000000000000000000000000000056
:095159000000000000000000004d
:2051620000000000000000000000000000000000000000000000000000000000000000002d
:0a5182000000000000000000000023
:20518c00000000000000000000000000000000000000000000000000000000000000000003
:0951ac00000000000000000000fa
:2051b5000000000000000000000000000000000000000000000000000000000000000000da
:0a51d50000000000000000000000d0
:2051df000002000000000000000000000000000000000000000000000000000000000000ae
:0951ff00000000000000000000a7
:20520800000000000000000000000000000000000000000000000000000000000000000086
:0a522800000000000000000000007c
:2052320000000000000000000000000000000000000000000000000000000000000000005c
:0952520000000000000000000053
:20525b00000020000000000000000000000000000000000000000000000000000000000013
:0a527b000000000000000000000029
:20528500000000000000000000000000000000000000000000000000000000000000000009
:0952a50000000000000000000000
:2052ae000000000000000000000000000000000000000000000000000000000000000000e0
:0a52ce0000000000000000000000d6
:2052d8000000000000000000000000000000000000000000000000000000000000000000b6
:0952f800000000000000000000ad
:2053010000000000000000000000000000000000000000000000000000000000000000008c
:0a5321000000000000000000000082
:20532b000000000000000000000000000000000000000000800000000000000000000000e2
:09534b0000000000000000000059
:20535400000000000000000000000000000000000000000000000000000000000000000039
:0a537400000000000000000000002f
:20537e0000000000000000000000000000000000000000000000000000000000000000000f
:09539e0000000000000000000006
:2053a7000400000000000000000000000000000000000000000000000000000000000000e2
:0a53c70000000000000000000000dc
:2053d100802800000000000000000000000000000000000000000000000000000000000014
:0953f100000000000000000000b3
:2053fa00000000000000000000000000000000000000000000000000000000000000000093
:0a541a000000000000000000000088
:20542400080000000000000000000000000000000000000000000000000000000000000060
:095444000000000000000000005f
:20544d0004c700000000000000000000000000000000000000000000000000000000000074
:0a546d000000000000000000000035
:20547700000000000000000000000000000000000000000000000000000000000000000015
:095497000000000000000000000c
:2054a0000000000000000000000000000000000000000000000000000000000000000000ec
:0a54c00000000000000000000000e2
:2054ca000000000000000000000000000000000000000000000000000000000000000000c2
:0954ea00000000000000000000b9
:2054f300000000000000000000000000000000000000000000000000000000000000000099
:0a551300000000000000000000008e
:20551d000c0000000000000050000000000000000000000000000000000000000000000012
:09553d0000000000000000000065
:205546000440000000000000020000000000000000000000000000000000000000000000ff
:0a556600000000000000000000003b
:2055700080000000000000000000000000000020000000000000000000000000000000007b
:0955900000000000000000000012
:205599000000000000000000000000000000000000000000000000000000000000000000f2
:0a55b90000000000000000000000e8
:2055c3000000000000000000000000000000000000000000000000000000000000000000c8
:0955e300000000000000000000bf
:2055ec0004000000000000000000000000000000000000000000000000000000000000009b
:0a560c000000000000000000000094
:20561600000000000000000000000000000000000000000000000000000000000000000074
:095636000000000000000000006b
:20563f000400000000000e0000000000000000000000000000000000000000000000000039
:0a565f000000000000000000000041
:205669008000000000000000000000000000000000000000000000000000000000000000a1
:0956890000000000000000000018
:205692000000000000000000000000000000000000000000000000000000000000000000f8
:0a56b20000000000000000000000ee
:2056bc000c00000000000000000000000000000000000000000000000000000000000000c2
:0956dc00000000000000000000c5
:2056e5000400000000000000000000000000000000000000000000000000000000000000a1
:0a570500000000000000000000009a
:20570f0000020005a0000000000000000000000000000000000000000000000000000000d3
:09572f0000000000000000000071
:20573800000000005a020000000000000000000000000000000000000000000000000000f5
:0a5758000000000000000000000047
:205762000000000f0080000000000000000000000000000000000000000000000000000098
:095782000000000000000000001e
:20578b0000003000f078000000000000000000000000000000000000000000000000000066
:0a57ab0000000000000000000000f4
:2057b500083400000000000000000000000000000000000000000000000000000000000098
:0957d500000000000000000000cb
:2057de000480400000000000000000000000000000000000000000000000000000000000e7
:0a57fe0000000000000000000000a1
:205808008040000000000000000000000000000000000000000000000000000000000000c0
:0958280000000000000000000077
:20583100000600000000000000000000000000000000000000000000000000000000000051
:0a585100000000000000000000004d
:20585b000002000000000400000000000000000000000000800000000000000000000000a7
:09587b0000000000000000000024
:20588400040000000000007000000000000001c000000000000000000000000000000000cf
:0a58a40000000000000000000000fa
:2058ae000000000000000000000000000000000000000000000000000000000000000000da
:0958ce00000000000000000000d1
:2058d7000000000000000000000000000000000000000000000000000000000000000000b1
:0a58f70000000000000000000000a7
:20590100000000000000000000000000000000000000000000000000000000000000000086
:095921000000000000000000007d
:20592a0000000000000000000000000000000000000000000000000000000000000000005d
:0a594a000000000000000000000053
:20595400000000000000000000000000000000000000000000000000000000000000000033
:095974000000000000000000002a
:20597d0000000000000000000000000000000000000000000000000000000000000000000a
:0a599d000000000000000000000000
:2059a7000002000000000000000000000000000000000000000000000000000000000000de
:0959c700000000000000000000d7
:2059d0000000000000000000000000000000000000000000000000000000000000000000b7
:0a59f00000000000000000000000ad
:2059fa0000000000000000000000000000000000000000000000000000000000000000008d
:095a1a0000000000000000000083
:205a2300000030000000000000000000000000000000000000000000000000000000000033
:0a5a43000000000000000000000059
:205a4d00000000000000000000000000000000000000000000000000000000000000000039
:095a6d0000000000000000000030
:205a7600000000000000000000000000000000000000000000000000000000000000000010
:0a5a96000000000000000000000006
:205aa0000000000000000000000000000000000000000000000000000000000000000000e6
:095ac000000000000000000000dd
:205ac9000000000000000000000000000000000000000000000000000000000000000000bd
:0a5ae90000000000000000000000b3
:205af300000200000000000000000000000000000000000000000000000000000000000091
:095b130000000000000000000089
:205b1c00000000000000000000000000000000000000000000000000000000000000000069
:0a5b3c00000000000000000000005f
:205b460000000000000000000000000000000000000000000000000000000000000000003f
:095b660000000000000000000036
:205b6f00040000000000000000000000000000000000000000000000000000000000000012
:0a5b8f00000000000000000000000c
:205b99008000000a50280000000000000000000000000000000000000000000000000000ea
:095bb900000000000000000000e3
:205bc200000000805a004000000000000000000000000000000000000000000000000000a9
:0a5be20000000000000000000000b9
:205bec0008000000000000020000000000000000000000000000000000000000000000008f
:095c0c000000000000000000008f
:205c150004400000000000000000000000000000000000000000000000000000000000002b
:0a5c35000000000000000000000065
:205c3f00003200000000000000000000000000000000000000000000000000000000000013
:095c5f000000000000000000003c
:205c68000000400000000000000000000000000000000000000000000000000000000000dc
:0a5c88000000000000000000000012
:205c92000000000000000000000000000000000000000000000000000000000000000000f2
:095cb200000000000000000000e9
:205cbb00000020000000007000000000000000000000000000000000000000000000000039
:0a5cdb0000000000000000000000bf
:205ce50000000000000000000000000000000000000000000000000000000000000000009f
:095d050000000000000000000095
:205d0e00000000000000000000000000000000000000000000000000000000000000000075
:0a5d2e00000000000000000000006b
:205d380000000000000000000000000000000000000000000000000000000000000000004b
:095d580000000000000000000042
:205d6100000000000000000000000000000000000000000000000000000000000000000022
:0a5d81000000000000000000000018
:205d8b00000200000000000040000000000000000000000080000000000000000000000036
:095dab00000000000000000000ef
:205db4000000000000000000020000000000000000000000000000000000000000000000cd
:0a5dd40000000000000000000000c5
:025dde000000c3
:035de00062003f1f
:035de300720080cb
:025de6001100aa
:035de80082000036
:025deb000103b2
:085ded000000000000000000ae
:085df5000000000000000000a6
:085dfd0000000000000000009e
:085e0500000000000000000095
:0261ed000000b0
:0361ef00820080ab
:0261f2000103a7
:0861f4000000000000000000a3
:0861fc0000000000000000009b
:08620400000000000000000092
:08620c0000000000000000008a
:0265f4000000a5
:0265f600110191
:0365f8008200001e
:0265fb0001039a
:0865fd00000000000000000096
:0866050000000000000000008d
:08660d00000000000000000085
:0866150000000000000000007d
:0269fd00000098
:0369ff0082008093
:026a020001038e
:086a040000000000000000008a
:086a0c00000000000000000082
:086a140000000000000000007a
:086a1c00000000000000000072
:026e040000008c
:026e0600110277
:036e080082000005
:026e0b00010381
:086e0d0000000000000000007d
:086e1500000000000000000075
:086e1d0000000000000000006d
:086e2500000000000000000065
:02720d0000007f
:03720f008200807a
:02721200010376
:08721400000000000000000072
:08721c0000000000000000006a
:08722400000000000000000062
:08722c0000000000000000005a
:02761400000074
:0276160011035e
:03761800820000ed
:02761b00010369
:08761d00000000000000000065
:0876250000000000000000005d
:08762d00000000000000000055
:0876350000000000000000004d
:027a1d00000067
:037a1f0082008062
:027a220001035e
:087a240000000000000000005a
:087a2c00000000000000000052
:087a340000000000000000004a
:087a3c00000000000000000042
:027e240000005c
:017e26002239
:027e2700c71e74
:027e2900010650
:00000001FF
