:02000000ff00ff
:080002004c6174746963650030
:17000a00694345637562653220323031362e31322e32373931300072
:16002100506172743a2069434534304858314b2d545131343400fc
:1a003700446174653a20417072203420323031372030393a35383a323800a2
:0200510000ffae
:040053007eaa997e6a
:02005700510056
:0200590001059f
:03005b00920020f0
:03005e0062014bf1
:030061007200909a
:0300640082000017
:02006700110086
:02006900010193
:20006b0000000000000000000000000000000000000000000008000000000000200000004d
:09008b000000000000000000006c
:2000940000000000000000000000000000000000000000000000000d00000000000000003f
:0a00b4000000000000000000000042
:2000be0000000000000000000000000000000000000000000004000000000000100000000e
:0900de00000000400000000000d9
:2000e7000000000000000000000000000000000000000000000000000000000000000000f9
:0a01070000000000000000000000ee
:20011100000000000000000000000000000000000000000000080000003000002002000074
:0901310080000000000000000045
:20013a0000000000000000000000000000000000000000000000000000030000000024007e
:0a015a000c0000000000000000008f
:200164000000000000040000000000001000000000000040000000001000000000000040d7
:0901840000000040000000000032
:20018d00000000000000000000000000000000000000000000000000000000000000000052
:0a01ad000000000000000000000048
:2001b70000000000000400000000000010000000000000400000000010000000000200c002
:0901d70000000000070100000017
:2001e00000000000000000000000000000008000000000000000000000000000000014006b
:0a02000000000000000800000000ec
:20020a000000000000000000000000000000000000000000000000000000000000000000d4
:09022a00c00000000000004000cb
:20023300000000000000000000000000000040000000000000000000000000000200000069
:0a025300040000000000000c000091
:20025d00000000000000000000000000000000000000000000000000002000000000000061
:09027d0000000000000000000078
:20028600000000000000000000000000000000000000000000000000000000000100000057
:0a02a600000000000000000000004e
:2002b0000000000000000000000000000000000000000000000000001000000000000040de
:0902d00000000000000000000025
:2002d90000000000000000000000000580000000000000000000000000000000020000007e
:0a02f90000000000000000000000fb
:200303000000000000000000000000000000000000000000000000000000000000000000da
:09032300000000000000000000d1
:20032c00000000000000000000000000000000000040000000000000000000000000000071
:0a034c0000000000000000000000a7
:20035600000000000000000000000000000000000000000000000000000000000000000087
:090376000000000000000000007e
:20037f0000000000000000000000000000000000000000000000000000000000000010004e
:0a039f000000000000400000000014
:2003a900200000000000000000000000000000000000000000000000000000000000008094
:0903c90029400000000200a5100b
:2003d2000100200000000000000000000000000000000000000000000000000000000001e9
:0a03f2000168000000000405a000ef
:2003fc000002000000000000000000000000000000000000000000000000000300000000dc
:09041c00000004000000000000d3
:20042500000020000000000000000000000000000000000000000000000000001000000087
:0a044500000000800000000000002d
:20044f00000400000000000000000000000000000000000000000000000000000000000089
:09046f0000000000000000000084
:200478000002e0000000000000000000000000000000000000000000000000000000000082
:0a049800000000000000000000005a
:2004a20000000000000000000000000000000000000000000000000000000000000000003a
:0904c20000000000000000000031
:2004cb00000000000000000000000000000000000000000000000000000000000000000011
:0a04eb000000000000000000000007
:2004f5000000000000000000000000000000000000000000000000000000000000000000e7
:09051500000000000000000000dd
:20051e000000000000000000000000000000000000000000000000000000000000000000bd
:0a053e0000000000000000000000b3
:20054800000000000000000000000000000000000000000000000000000000000000000093
:090568000000000000000000008a
:2005710000000000000000000000000000000000000000000000000000000000000000006a
:0a0591000000000000000000000060
:20059b004001000000000000000000000000000000000000000000000000000000000000ff
:0905bb00000000800000000000b7
:2005c4000000200000000000000000000000000000000000000000000000000000000000f7
:0a05e400000000000000000000000d
:2005ee0000060000000000000000000000000000000000000020000000e0f6098000000068
:09060e000000064000000000009d
:200617000802c000000000000000000000000000000000000008000000000f0000000000e2
:0a06370000000002000000000000b7
:20064100400000000000000000000000000000000000000000400000000000030000000016
:0906610000000c0000001ef04036
:20066a0000c02000000000000000003c00000000000000000008000000000000200010001c
:0a068a00000000800000000f0400d3
:20069400000200000000000000000000000000000000000000000000000000000000000044
:0906b4000000000020000000001d
:2006bd0000000000000000000000000000000000000000000000000000000000000000001d
:0a06dd0000000000004000000000d3
:2006e7000000000000000000000000000000000000000000000000000000000000000002f1
:09070700bc10000000001af041d2
:200710000000200000000000000000000000000000000000000000000000000000000000a9
:0a07300003c100000000000f0400e8
:20073a0000000000000000000000000000000000000000000000000000000000000000009f
:09075a0000000000000400000092
:20076300000000000000000000000000000000000030000000000000000000000000000046
:0a078300000000000002000000006a
:20078d000000000000000000000000000000000000000000000000600000000000000000ec
:0907ad000000000000040ef04001
:2007b600000000000000000000000000000000000000000000000000000000000000000023
:0a07d600000000000002010f040003
:2007e0000000000000000000000000000005a1000000000000000000000000030000000050
:0908000000000c0000001cf04196
:200809000000000000000000000000000140a50000000000000000000000000020000000c9
:0a082900000000800240010f0400ef
:20083300000000000000000000000000000000000000000000000000400000000001807371
:0908530089500000206ecf8b00db
:20085c00000000000000000000000000000000000040000000000000200000000000000715
:0a087c006d010000004284e5b000a9
:2008860000020000000000000000000000000000000000000060020001af04018000007346
:0908a600981006000000f9cf00d3
:2008af000000000000000000000000000000000000000000000000040010f00040000007de
:0a08cf00a30104000242b7e8500044
:2008d900000000000000000000000000000000000000000000c0000600cf04030000180348
:0908f900885004000029fa804235
:200902000000000000000000000000000000000000000000000000000000f00000000007de
:0a0922006c4900c0000686000c10ae
:20092c00000200000000000000000000000000000000000000000006008f040000100053ad
:09094c0094100000000008a00056
:200955000100000000000000000000000000000000000000000000000010f000000200007f
:0a0975008141000003402505000049
:20097f0000000000000000000000000000000000000000000000006001ef04000000000004
:09099f000000000004000000004b
:2009a8000000200000000000000000000000000000000000000006000000f0000000000019
:0a09c8000000000080200000000085
:2009d20000000000000000000000000000000000000000000000000000af04000000000052
:0909f200000000000004000000f8
:2009fb000000000000000000000000000000000000000000000000000010f00000000000dc
:0a0a1b00000000000003400000008e
:200a250000000000000000000000000000000000000000000000000000000000000d1b0089
:090a4500000000000000000000a8
:200a4e000000000000000000000000000000000000000000000000000000000000001080f8
:0a0a6e000000000001c000000000bd
:200a7800000000000000000000000000000000000000000000000000018f040300000000c7
:090a980000000c003e000000000b
:200aa1000000000000000000000000000000000000000000000000140000f0002000000011
:0a0ac10000000080024280000000e7
:200acb0000000000000000000000000000000000000000000000000285b080000000191625
:090aeb0082000000003c00000044
:200af4000000000000000000000000000000000000000000000200002a6a000000000087c5
:0a0b1400a40000200006000000000d
:200b1e00000000000000000000000000000000000000000000600000000000018005800051
:090b3e00295006000000c8500017
:200b470000000000000000000000000000000000000000000000000000000000000000e9a5
:0a0b67000168000000000305000013
:200b7100000000000000000000000000000000000000000000c00000000000031000000091
:090b9100295000001401fc14407d
:200b9a00000000000000000000000000000000000000000000000000000000000000000734
:0a0bba000168000001e024d184006e
:200bc4000002000000000000000000000000000000000000000003400000000000080007bd
:090be4003c10000014016e4200f7
:200bed000000000000000000000000000000000000000000000200040000000000001000d2
:0a0c0d0043c0000000239490100083
:200c1700000000000000000000000000000000000000000000000000200a5400000000003f
:090c37002950000000017e4a0072
:200c400000002000000000000000000000000000000000000002000001405a0008000009c6
:0a0c600001680020000397f0000077
:200c6a00000000000000000000000000000000000000000000000000200a540000000000ec
:090c8a000000000004000000005d
:200c930000000000000000000000000000000000000000000002000001405a00080000e0bc
:0a0cb3000000000000200000000017
:200cbd0000000000000000000000000000000000000000000000000000000000000180fe98
:090cdd0042000000142800000090
:200ce600000000000000000000000000000000000000000000000000000000000800000fd7
:0a0d0600240004200020000000007b
:200d10000000000000000000000000000000000000000000000000000000000000081800a3
:090d300000000c0020000000008e
:200d3900000000000000000000000000000000000000000000000000000000000800910001
:0a0d5900000000a002c280000000ac
:200d63000001000000000000000000000000000000000000000000001e1008000007005ad8
:090d83008200000000701ef04027
:200d8c00000000000000000000020000000000000040000000020000000e00000000500d98
:0a0dac00e80000000004010f0480bd
:200db6000002000000000000002000000000000000000000002000001c8f0c0000001a13f7
:090dd600200086000001ea05403e
:200ddf0000000000000000000008000000000000000000000008000000000f0000000001d4
:0a0dff000000000000000000540096
:200e0900000000000000000000400000000000000000000000400006548f0c0003850a00c2
:090e290000000c00360008f04046
:200e320000000000000000000008000000000000000000000008000020200f00000009b088
:0a0e5200000000800040010f0400c2
:200e5c00000200000000000000000000000000000000000000000260148f0c000000000063
:090e7c000000000000000000006d
:200e850000000000000000000002000000000000000000000002001c00200f00000000b04e
:0a0ea5000000000000000000000043
:200eaf0000000000000000000000000000000000000000000000000000996c00000f0a1bea
:090ecf002800000006000af040b2
:200ed800000020000000000000000000000000000000000000000000000c6900080099b014
:0a0ef800828000200000000f0408b3
:200f0200000000000000000000000000000000000000000000000200168f0c0000000033e9
:090f2200a80080002001eaa540ae
:200f2b0000000000000000000000000000000000000000000000000400000f000800000784
:0a0f4b008200000002c03c0fac0061
:200f55000000000000000000000000001de964000000000000000060168f0c00000500fb01
:090f75000200800000040cf040b1
:200f7e0000000000000000000000000020309620000000000000000000000f200800d80737
:0a0f9e00400004200002000f0400d0
:200fa8000000000000000000000000004000000000000000000002c61e8f0c000005000063
:090fc80000000c0006041c0f409f
:200fd10000000000000000000000000020000000000000000000001c00200f000000d800bd
:0a0ff100000000a000028000f48060
:200ffb000000000000000000000000000000000000000000000000001c8f0c00000001001e
:09101b000000000000021ca048c6
:2010240000000000000000000000000000000000000000000000000000000f0400007080a9
:0a1044000000000000003c0504005d
:20104e000000000000000000000000000000000000000000002000001c8f0c0180000b0718
:09106e003c1006000063ee004096
:2010770000000000000000000000000000000000000000000008000000000f000000d1f081
:0a10970043c000004000240a0c8052
:2010a100000000000000000000000000000000000000000000400006548f0c0300000103f3
:0910c1003c1000000003dba1401b
:2010ca0000000000000000000000000000000000000000000008000020200f000001d0f0ee
:0a10ea0003c0000000001ebb5414f8
:2010f400000200000000000000000000000000000000000000000060548f0c000000000289
:091114003c100000206000000006
:20111d0000000000000000000000000000000000000000000000000020200f000000000063
:0a113d0043c0200000400000000045
:201147000000000000000000000000000000000000000000000000001e8f0c0000018e0040
:091167000000000000077da1401a
:2011700000002000000000000000000000000000000000000000000000000f00000001002f
:0a1190000000000000039dbb5400a6
:20119a00000000000000000000000000000000000000000000000000168f0c000000011e65
:0911ba004000000016680cf04032
:2011c30000000000000000000000000000000000000000000000000000000f000000008578
:0a11e300a48000000000010f0414b6
:2011ed00000000000000000000000000000000000000000000000260168f0c00000000329d
:09120d009fd080000e3400a540c2
:2012160040000000000000000000000000000000000000000000000400200f08000000013c
:0a123600c3fc000000223c05ae805e
:201240000000000000000000000000000000000000000000000002061e8f0c0000000000cd
:0912600000000c0006701ef041b4
:2012690040000000000000000000000000000000000000000000000400200f0800000000ea
:0a128900000000800004000f0400c4
:201293000000000000000000000002000da0100000000000000000001c8f0c0000001802ab
:0912b3003c10000e0004000000d4
:2012bc0000000000000000000000001c03c80000004000000000000000000f1400000000c8
:0a12dc0043c0000000020000000003
:2012e6000000000000000000000000000000000000000000002040001c8f0c018000000050
:09130600000000002003db0800d8
:20130f0000000000000000000000000000000000000000000008000000000f08000000009f
:0a132f00000000000042ada0001015
:20133900000000000000000000000000000000000000000000400006548f0c00000000005f
:09135900000000000602fe0a007b
:2013620000000000000000000000000000000000000000000008000020200f08000000000c
:0a1382000000000000228d000000b2
:20138c000002000000000000000002000000000000000000000400001485540000000080cc
:0913ac002950010000627a0002e0
:2013b50001000000000000000000003c00000000000000000000000000205508000000035b
:0a13d500016800000144150010003b
:2013df000000000000000000000001c000000000000000000000000000000000000801170d
:0913ff000280000e00021c0a002d
:2014080000002000000000000000000200000000000000000000000000000000000010e0b2
:0a1428008028000000001d005000a5
:20143200000000000000000000000000000000000000000000000000000000000001800316
:091452003c10000014296840025e
:20145b00000000000000000000000000000000000000000000000000000000000000000071
:0a147b0043c00000036037000000ca
:2014850000000000000000000000000380000000000000000000066000000000000000005e
:0914a500000000000e07cae0007f
:2014ae000000000000000000000000004000000000000000000000040000000000000000da
:0a14ce00000000000002a7a40000c7
:2014d8000000000000000000000000000000000000000000000000000000000000000003f1
:0914f8003c10000014000000008b
:201501000000000000000000000000000000000000000000000000000000000002000000c8
:0a15210003c020000002c00000001b
:20152b0000000000f8000000000000000000000000000000000000000000000000000000a8
:09154b000000000014066b85008d
:201554000000000009800000000000000000000000000000000000000000000000000000ee
:0a15740000000000a0025fa40000c8
:20157e000000000000000000000000000000000000000000000000000000000180080000c4
:09159e0000000000b62b69a10059
:2015a700000000000000000000000000000000000000000000008000000000000000100094
:0a15c70000000000014435a02000e0
:2015d10020600000000000000000000000000000000000000000000000000000000000007a
:0915f1000000000000065b000090
:2015fa0002040000000000000000000000000000000000000000000000000000000000f0db
:0a161a000000000000025d804000a7
:2016240000030000f80000000000000000000000000000000000200000000000000000008b
:0916440000000000040769a10088
:20164d00000000000f0000000000000000000000000000000000000000000000000000006e
:0a166d0000000000034285d02000b9
:2016770000000000000000000000000000000000000000000000000000000000000000ff54
:0916970070d0000000000000000a
:2016a000000000000000000000000000000000000000000000000000000000000000000f1b
:0a16c000a345060000000000000032
:2016ca0000000000000801680000000000000000000000000000000000000000000181ff0e
:0916ea0068500000003800000007
:2016f30000000000000050294000000000000000000000000000000000000000000000839b
:0a171300fde90000000000000000e6
:20171d0000000000000000000000000000000000000000000000000000000000000000fab2
:09173d00f95000000002590000ff
:20174600080000000000000000000000000000000000000000000000000000000000000b70
:0a176600fd61000000001c8040003f
:2017700000000000000969f8000000000000000000000000000400000000000300001e00ca
:091790000000000016000000003a
:20179900100000000000522fc000000000000000000000000000000000000000200000803f
:0a17b9000000000000000000000026
:0217c300000024
:0217c500110110
:0217c70001011e
:2017c900000000000000000000000000000000000000000000000000000000000000000000
:0917e900000000000000000000f7
:2017f2000000000000000000000000000000000000000000000000000000000000000000d7
:0a18120000000000000000000000cc
:20181c000000000000000000000000000000000000000000000000000000000000000000ac
:09183c00000000000d0000000096
:20184500000000000000000000000000000000000000000000000000000000000000000083
:0a18650000000000008000000000f9
:20186f00000000000000000000000000000000000000000000000000000000000000000059
:09188f0000000000000000000050
:20189800000000000000000000000000000000000000000000000000000000000000000030
:0a18b8000000000000000000000026
:2018c200000000000004000000000000100000000000004000000000100000000000004062
:0918e200000000000001000000fc
:2018eb000000000000000000000000000000000000000000000000000000000000000000dd
:0a190b0000000000000000000000d2
:2019150000000000000c000000000000100000000000004000000000100000000000004006
:09193500000000000001000000a8
:20193e00000000000000000000000000000000000000000000000000000000000000000089
:0a195e00000000000000000000007f
:20196800000000001400040000000000000000000000000000000000000000000000000047
:0919880000000000000000c00096
:201991000000002002000040000000000000000000000000000000000000000000000000d4
:0a19b1000000000000000004000028
:2019bb0000000000000000000000000000000000000000000000000000000000000000000c
:0919db0000000000000000000003
:2019e4000000001000000000000000000000000000000000000000000000000000000000d3
:0a1a040000000000000000000000d8
:201a0e000000000000000000000000000000000000000000000000000000000000000000b8
:091a2e00000000000000000000af
:201a370000000020000000000000000000000000000000000000000000000000000000006f
:0a1a57000000000000000000000085
:201a6100000000000000000000000000000000000000000000000000000000000000000065
:091a81000000000000000000005c
:201a8a0000000000000000000000000000000000000000000000000000000000000000003c
:0a1aaa000000000000000000000032
:201ab400000000000000000000000000000000000000000000000000000000000000000012
:091ad40000000000000000000009
:201add000000000000000000000000000000000000000000000000000000000000000000e9
:0a1afd0000000000000000000000df
:201b07000000000000000000000000000000000000000000000000000000000000000000be
:091b2700000000000000000000b5
:201b3000000000000000000000000000000000000000000000000000000000000000000095
:0a1b5000000000000000000000008b
:201b5a00000200000000000000000000000000000000000000000000000000000000000069
:091b7a0000000000000000000062
:201b8300000000000000000000000000000000000000000000000000000000000000000042
:0a1ba3000000000000000000000038
:201bad00000000000000000000000000000000000000000000000000000000000000000018
:091bcd000000000000000000000f
:201bd6000000200000000000000000000000000000000000000000000000000000000000cf
:0a1bf60000000000000000000000e5
:201c00000000000000000000000000000000000000000000000000000000000000000000c4
:091c2000000000000000000000bb
:201c290000000000000000000000000000000000000000000000000000000000000000009b
:0a1c49000000000000000000000091
:201c5300000000000000000000000000000000000000000000000000000000000000000071
:091c730000000000000000000068
:201c7c00000000000000000000000000000000000000000000000000000000000000000048
:0a1c9c00000000000000000000003e
:201ca60000000000000000000000000000000000000000000000000000000000000000001e
:091cc60000000000000000000015
:201ccf000000000000000000000000000000000000000000000000000000000000000000f5
:0a1cef0000000000000000000000eb
:201cf9000000000000000000000000000000000000000000000000000000000000000000cb
:091d1900000000000000000000c1
:201d22000000000000000000000000000000000000000000000000000000000000000000a1
:0a1d42000000000000000000000097
:201d4c00000000000000000000000000000000000000000000000000000000000000000077
:091d6c000000000000000000006e
:201d750000000000000000000000000000000000000000000000000000000000000000004e
:0a1d95000000000000000000000044
:201d9f00000000000000000000000000000000000000000000000000000000000000000024
:091dbf000000000000000000001b
:201dc8000000000000000000000000000000000000000000000000000000000000000000fb
:0a1de80000000000000000000000f1
:201df2000002000000000000000000000000000000000000000000000000000000000000cf
:091e1200000000000000000000c7
:201e1b000000000000000000000000000000000000000000000000000000000000000000a7
:0a1e3b00000000000000000000009d
:201e450000000000000000000000000000000000000000000000000000000000000000007d
:091e650000000000000000000074
:201e6e00000020000000000000000000000000000000000000000000000000000000000034
:0a1e8e00000000000000000000004a
:201e980000000000000000000000000000000000000000000000000000000000000000002a
:091eb80000000000000000000021
:201ec100000000000000000000000000000000000000000000000000000000000000000001
:0a1ee10000000000000000000000f7
:201eeb000000000000000000000000000000000000000000000000000000000000000000d7
:091f0b00000000000000000000cd
:201f14000000000000000000000000000000000000000000000002000000000000000000ab
:0a1f340000000000000000000000a3
:201f3e0000000000000000000000000000000000040000000000000000000000000000007f
:091f5e000000000000000000007a
:201f67000060000000000000000000000000000000000000000000000000000000000000fa
:0a1f87000000000000000000000050
:201f9100000000000000000000000000000000000000000000000000000000000000000030
:091fb10000000000000000000027
:201fba00000000000000000000000000000000000000000000000000000000000000000007
:0a1fda0000000000000000000000fd
:201fe4000000000000000000000000000000000000000000000000000000000000000000dd
:09200400000000000000000000d3
:20200d000000000000000000000000000000000000000000000000000000000000000000b3
:0a202d0000000000000000000000a9
:20203700000000000000000000000000000000000000000000000000000000000000000089
:0920570000000000000000000080
:20206000000000000000000000000000000000000000000000000000000000000000000060
:0a2080000000000000000000000056
:20208a00000200000000000000000000000000000000000000000000000000000000000034
:0920aa000000000000000000002d
:2020b30000000000000000000000000000000000000000000000000000000000000000000d
:0a20d3000000000000000000000003
:2020dd000000000000000000000000000000000000000000000000000000000000000000e3
:0920fd00000000000000000000da
:20210600000020000000000000000000000000000000000000000000000000000000000099
:0a21260000000000000000000000af
:2021300000000000000000000000000000000000000000000000000000000000000000008f
:0921500000000000000000000086
:20215900000000000000000000000000000000000000000000000000000000000000000066
:0a217900000000000000000000005c
:2021830000000000000000000000000000000000000000000000000000000000000000003c
:0921a30000000000000000000033
:2021ac00000000000000000000000000000000000000000000000000000000000000000013
:0a21cc000000000000000000000009
:2021d6000000000000000000000000000000000000000000000000000000000000000000e9
:0921f600000000000000000000e0
:2021ff000000000000000000000000000000000000000000000000000000000000000000c0
:0a221f0000000000000000000000b5
:20222900000000000000000000000000000000000000000000000000000000000000000095
:092249000000000000000000008c
:2022520000000000000000000000000000000000000000000000000000000000000000006c
:0a2272000000000000000000000062
:20227c00000000000000000000000000000000000000000000000000000000000000000042
:09229c0000000000000000000039
:2022a500000000000000000000000000000000000000000000000000000000000000000019
:0a22c500000000000000000000000f
:2022cf000000000000000000000000000000000000000000000000000000000000000000ef
:0922ef00000000000000000000e6
:2022f8000000000000000000000000000000000000000000000000000000000000000000c6
:0a23180000000000000000000000bb
:20232200000200000000000000000000000000000000000000000000000000000000000099
:0923420000000000000000000092
:20234b00000000000000000000000000000000000000000000000000000000000000000072
:0a236b000000000000000000000068
:20237500000000000000000000000000000000000000000000000000000000000000000048
:092395000000000000000000003f
:20239e000000200000000000000000000000000000000000000000000000000000000000ff
:0a23be000000000000000000000015
:2023c8000000000000000000000000000000000000000000000000000000000000000000f5
:0923e800000000000000000000ec
:2023f1000000000000000000000000000000000000000000000000000000000000000000cc
:0a24110000000000000000000000c1
:20241b000000000000000000000000000000000000000000000000000000000000000000a1
:09243b0000000000000000000098
:20244400000000000000000000000000000000000000000000000000000000000000000078
:0a246400000000000000000000006e
:20246e00000000000000000000000000000000000400000000000000000ff010000000003b
:09248e0000000000000000000045
:202497000000000000000000000000000000000000000000000000000000ff000000000026
:0a24b700000000000000000000001b
:2024c1000000000000000000000000000000000000000000000000000000000000000000fb
:0924e100000000000000000000f2
:2024ea000000000000000000000000000000000000000000000000000000000000000000d2
:0a250a0000000000000000000000c7
:20251400000000000000000000000000000000000000000000000000000000008000000027
:092534000000020000000000009c
:20253d0000000000000000000000000000000000000000000000000000000000000000007e
:0a255d000000000000000000000074
:20256700000000000000000000000000000000000000000000000000000000000000000054
:092587000000000000000000004b
:2025900000000000000000000000000000000000000000000000000000000000000000002b
:0a25b0000000000000000000000021
:2025ba0000020000000000000000000000000000000000000000000000000000800000007f
:0925da00000002000000000000f6
:2025e3000000000000000000000000000000000000000000000000000000000000000000d8
:0a26030000000000000000000000cd
:20260d000000000000000000000000000000000000000000000000000000000000000000ad
:09262d00000000000000000000a4
:20263600000020000000000000000000000000000000000000000000000000000000000064
:0a265600000000000000000000007a
:20266000080000000000000000000000000000000000000000000000000000000000000052
:0926800000000000000000000051
:2026890004000000000000000000000000000000000000000000000000000000000000002d
:0a26a9000000000000000000000027
:2026b300800000000000000000000000000000000000000000000000000000000000000087
:0926d300000000000000000000fe
:2026dc000000000000000000000000000000000000000000000000000000000000000000de
:0a26fc0000000000000000000000d4
:20270600002a00000000000000000000000000000000000000000000000000000000000089
:09272600000000000000000000aa
:20272f00040040000000000000000000000000000000000000000000000000000000000046
:0a274f000000000000000000000080
:20275900000000000000000000000000000000000000000000000000000000000000000060
:0927790000000000000000000057
:20278200000000000000000000000000000000000000000000000000000000000000000037
:0a27a200000000000000000000002d
:2027ac0080000000000000000000000000000000080000000000080000000000000000007d
:0927cc0000000000000000000004
:2027d5000000000000000000000000000000000000000000000001000000000000000000e3
:0a27f50000000000000000000000da
:2027ff0000008000000000000000000000000000000000000000000000000000000000003a
:09281f00000000000000000000b0
:20282800000000000000000000000000000000000000000000000000000000000000000090
:0a2848000000000000000000000086
:202852008000000000000000000000000000000000000000000000000000000000000000e6
:092872000000000000000000005d
:20287b00000004000000000000000000000000000000000000000000000000000000000039
:0a289b000000000000000000000033
:2028a500000000000000000000000000000000000000000000000000000000000000000013
:0928c5000000000000000000000a
:2028ce000000300000000000000000000000000000000000000000000000000000000000ba
:0a28ee0000000000000000000000e0
:2028f8000000000000000000000000000000000000000000000000000000000000000000c0
:09291800000000000000000000b6
:20292100000000000000000000000000000000000000000000000000000000000000000096
:0a294100000000000000000000008c
:20294b0000000000000000000000000000000000000000000000000000000000000000006c
:09296b0000000000000000000063
:20297400000000000000000000000000000000000000000000000000000000000000000043
:0a2994000000000000000000000039
:20299e00000000000000000000000000000000000400000000000000000000000000000015
:0929be000000010000000000000f
:2029c7000000000000000000000000000000000000000000000000000000000000000000f0
:0a29e70000000000000000000000e6
:2029f1000000000000000000000000000000000000000000000000000000000000000000c6
:092a1100000000000000000000bc
:202a1a0000000000000000000000000000000000000000000000000000000000000000009c
:0a2a3a000000000000000000000092
:202a4400000000000000000000000000000000000000000000000000000000000000000072
:092a640000000000000000000069
:202a6d00000000000000000000000000000000000000000000000000000000000000000049
:0a2a8d00000000000000000000003f
:202a970000000000000000000000000000000000000000000000000000000000000000001f
:092ab70000000000000000000016
:202ac0000000000000000000000000000000000000000000000000000000000000000000f6
:0a2ae00000000000000000000000ec
:202aea000002000000000000000000000000000000000000000000000000000000000000ca
:092b0a00000000000000000000c2
:202b13000000000000000000000000000000000000000000000000000000000000000000a2
:0a2b33000000000000000000000098
:202b3d00000000000000000000000000000000000000000000000000000000000000000078
:092b5d000000000000000000006f
:202b660000002000000000000000000000000000000000000000000000000000000000002f
:0a2b86000000000000000000000045
:202b9000000000000000000000000000000000000000000000000000000000000000000025
:092bb0000000000000000000001c
:202bb9000000000000000000000000000000000000000000000000000000000000000000fc
:0a2bd90000000000000000000000f2
:202be3000000000000000000000000000000000000000000000000000000000000000000d2
:092c0300000000000000000000c8
:202c0c000000000000000000000008000000000000000000000000000000000000000000a0
:0a2c2c00000000004000000000005e
:202c360000000000000000000000000000000000000000000000000000000000000000007e
:092c560000000000000000000075
:202c5f00004000000000000000000000000000000000000000000000000000000000000015
:0a2c7f00000000000000000000004b
:202c8900000000000000000000000000000000000000000000000000000000020000000821
:092ca900281018000225d0b060cb
:202cb2000400000000000000000000000000000000000000000000000000000030000005c9
:0a2cd200728120c0006045af54205d
:202cdc00800000000000000000000000000000000000000000000000000000000000000058
:092cfc00000000000401fc0400ca
:202d05000000000000000000000000000000000000000000000000000000000000000000ae
:0a2d250000000000000035f000007f
:202d2f00080000000000000000000000000000000000000000000000000000000005000077
:092d4f0000000000240000000057
:202d5800048000000000000000000000000000000000000000000000000000000000800057
:0a2d7800000000000200000000004f
:202d820000020000000000000000000000000000000000000000000000000000000000002f
:092da20000000000000049ba40e5
:202dab00000000000000000000000000000000000000000000000000000000000000000008
:0a2dcb0000000000006024fa54002c
:202dd5000000000000000000000000000000000000000000000000000000000000000000de
:092df500000000000000000000d5
:202dfe000002b0000000000000000000000000000000000000000000000000000000000003
:0a2e1e0000000000000600000000a4
:202e280020000000000000000000000000000000000000000000000000000000000010005a
:092e48000000000000340000004d
:202e510003030000000000000000000000000000000000000000000000000000000001e07a
:0a2e7100000000000002c000000095
:202e7b00000000000000000000000000000000000000000000000000000000000000000037
:092e9b00000000000429fc834141
:202ea4000000000000000000000000000000000000000000000000000000000018000000f6
:0a2ec400000000600200148e74800c
:202ece000000000000000000000000000000000004000000000000000000000000000000e0
:092eee000000000014280000009f
:202ef7000000000000000000000000000000000000000000000000000000000000000000bb
:0a2f1700000000000140000000006f
:022f21000000ae
:022f2300110299
:022f25000101a8
:202f270000000000000000000000000000000000000000000000000000000000000000008a
:092f470000000000000000000081
:202f5000000000000000000000000000000000000000000000000000000000000000000061
:0a2f70000000000000000000000057
:202f7a00000000000000000000000000000000000000000000000000000000000000000037
:092f9a000000000000000000002e
:202fa30000000000000000000000000000000000000000000000000000000000000000000e
:0a2fc3000000000000000000000004
:202fcd000000000000000000000000000000000000000000000000000000000000000000e4
:092fed00000000000000000000db
:202ff6000000000000000000000000000000000000000000000000000000000000000000bb
:0a30160000000000000000000000b0
:203020000000000000080000000000002000000000080000000000002000000000000080c0
:0930400000000000000200000085
:20304900000000000000000000000000000000000000000000000000000000000000000067
:0a306900000000000000000000005d
:2030730000000000000800000000000020000000000800000000000020000000000000806d
:0930930000000000010200000031
:20309c00000000000000000000000000000000000000000000000000000000000000000014
:0a30bc00000000000000000000000a
:2030c6000000000000000000000000000000000000000000000000000000000000000000ea
:0930e600000000000000000000e1
:2030ef000000000000000000000000000000000000000000000000000000000000000000c1
:0a310f0000000000000000000000b6
:20311900000000000000000000000000000000000000000000000000000000000000000096
:093139000000000000000000008d
:2031420000000000000000000000000000000000000000000000000000000000000000006d
:0a3162000000000000000000000063
:20316c00000000000000000000000000000000000000000000000000000000000000000043
:09318c000000000000000000003a
:2031950000000000000000000000000000000000000000000000000000000000000000001a
:0a31b5000000000000000000000010
:2031bf000000000000000000000000000000000000000000000000000000000000000000f0
:0931df00000000000000000000e7
:2031e8000000000000000000000000000000000000000000080000000000000000000000bf
:0a32080000000000000000000000bc
:2032120000000000000000000000000000000000000000000000000000000000000000009c
:0932320000000000000000000093
:20323b00000000000000000000000000000000000000000000000000000000000000000073
:0a325b000000000000000000000069
:20326500000000000000000000000000000000000000000000000000000000000000000049
:0932850000000000000000000040
:20328e00000000000000000000000000000000000000000000000000000000000000000020
:0a32ae000000000000000000000016
:2032b8000002000000000000000000000000000000000000000000000000000000000000f4
:0932d800000000000000000000ed
:2032e1000000000000000000000000000000000000000000000000000000000000000000cd
:0a33010000000000000000000000c2
:20330b000000000000000000000000000000000000000000000000000000000000000000a2
:09332b0000000000000000000099
:20333400000020000000000000000000000000000000000000000000000000000000000059
:0a335400000000000000000000006f
:20335e0000000000000000000000000000000000000000000000000000000000000000004f
:09337e0000000000000000000046
:20338700000000000000000000000000000000000000000000000000000000000000000026
:0a33a700000000000000000000001c
:2033b1000000000000000000000000000000000000000000000000000000000000000000fc
:0933d100000000000000000000f3
:2033da000000000000000000000000000000000000000000000000000000000000000000d3
:0a33fa0000000000000000000000c9
:203404000000000000000000000000000000000000000000000000000000000000000000a8
:093424000000000000000000009f
:20342d0000000000000000000000000000000000000000000000000000000000000000007f
:0a344d000000000000000000000075
:20345700000000000000000000000000000000000000000000000000000000000000000055
:093477000000000000000000004c
:2034800000000000000000000000000000000000000000000000000000000000000000002c
:0a34a0000000000000000000000022
:2034aa00000000000000000000000000000000000000000000000000000000000000000002
:0934ca00000000000000000000f9
:2034d3000000000000000000000000000000000000000000000000000000000000000000d9
:0a34f30000000000000000000000cf
:2034fd000000000000000000000000000000000000000000000000000000000000000000af
:09351d00000000000000000000a5
:20352600000000000000000000000000000000000000000000000000000000000000000085
:0a354600000000000000000000007b
:20355000000200000000000000000000000000000000000000000000000000000000000059
:0935700000000000000000000052
:20357900000000000000000000000000000000000000000000000000000000000000000032
:0a3599000000000000000000000028
:2035a300000000000000000000000000000000000000000000000000000000000000000008
:0935c300000000000000000000ff
:2035cc000000200000000000000000000000000000000000000000000000000000000000bf
:0a35ec0000000000000000000000d5
:2035f6000000000000000000000000000000000000000000000000000000000000000000b5
:09361600000000000000000000ab
:20361f0000000000000000000000000000000000000000000000000000000000000000008b
:0a363f000000000000000000000081
:20364900000000000000000000000000000000000000000000000000000000000000000061
:0936690000000000000000000058
:20367200000000000000000000000000000000000000000000000000000000000000000038
:0a369200000000000000000000002e
:20369c0000000000000000000000000000000000000000000000000000000000000000000e
:0936bc0000000000000000000005
:2036c5000000000000000000000000000000000000000000000000000000000000000000e5
:0a36e50000000000000000000000db
:2036ef000000000000000000000000000000000000000000000083d6018000000100860654
:09370f00000000000000000000b1
:2037180000000000000000000000000000000000000000000800003c2000000000000940e4
:0a3738000000000000000000000087
:2037420000000000000000000000000000000000000000000000041790010018030f13b4ca
:09376200000060100bcc0000090e
:20376b00800000000000000000000000000000000000000000001003cb008000000f000150
:0a378b006000000000bd00000140d6
:203795000000000000000000000000000000000000000000000083c400000000010f90002d
:0937b500280000000000000000e3
:2037be0000000000000000000000000000000000000000000000003c200000000000f5009a
:0a37de0004000000000000000000dd
:2037e8000002000000000000000000000000000000000000000083d6098a400003691020f7
:09380800640000000000800000d3
:2038110000000000000000000000000000000000000000000000003c2011080000096901af
:0a383100420000000000010000004a
:20383b0000000000000000000000000000000000000000000000a9401001000002aa16961b
:09385b0004000000000000000060
:203864000000200000000000000000000000000000000000000001680a008000000aa00087
:0a38840002800000000005000000b3
:20388e000000000000000000000000000000000000000000000000000000000002625776e9
:0938ae00600000000000000000b1
:2038b7000000000000000000000000000000000000000000000000000000000000098f70e9
:0a38d70042c00000000000000000e5
:2038e10000000000000000000000000000000000000000000000a9401800000000005a600c
:093901006000000bc16000a00091
:20390a0000000000000000000000000000000000000000000000016808100000000087e8ad
:0a392a00400000003c020000000015
:203934000000000000000000000000000000000000000000000083cc0000000080103b4019
:09395400000000000000800000ea
:20395d0000000000000000000000000000000000000000000000003c0000000000000b34cf
:0a397d00000000000000050000003b
:20398700000000000000000000000000000000000000000000000000000a000002a500402f
:0939a700040000083ce081a010be
:2039b000000000000000000000000000000000000000000000000000000100000005a03021
:0a39d0000280000003c20100008025
:2039da000000000000000000000000000000000000000000000000000800001800505e00ff
:0939fa0000006000404b90000148
:203a030080000000000000000000000000000000000000000000000000500000000500804e
:0a3a230002800020001fd98b000074
:203a2d00000000000000000000000000000000000000000000000014851a000046a65b86f9
:093a4d00040000083cc018a000b0
:203a56000000000000000000000000000000000000000000000002034ed8b000000a60c04b
:0a3a76000200000003c2001b000064
:203a800000020000000000000000000000000000000000000010004ea000000002a5020677
:093aa000040000083c4000000095
:203aa9000000000000000000000000000000000000000000000030002b000000000a500147
:0a3ac9004380000003c2000000006b
:203ad3000000000000000000000000000000000000000000000000000000000002a500002c
:093af30000000208286c7080003c
:203afc00000020000000000000000000000000000000000000000000000000010005a02cb8
:0a3b1c000000040002820090001077
:203b26000000000000000000000000000000000000000000000083c6080000000010d70047
:093b46000400000001d818000081
:203b4f0000000000000000000000000000000000000000000000003c20900000080005a8b5
:0a3b6f00020100020045f000000012
:203b7900040000000000000000000000000000000000000000000000001e0000020f502089
:093b99006000000347ea81b0005e
:203ba200000000000000000000000000000000000000000000000000000000000040f000d3
:0a3bc200400000003946a50800008d
:203bcc0000000000000000000000000000000000000000000000000000000000022adbe0f2
:093bec00000000083d400000004b
:203bf5000000000000000000000000000000000000000000000000000000000000054dbea0
:0a3c15004000000003c20d00000093
:203c1f0000000000000000000000000000000000000000000000a394e0000000020f30002d
:093c3f00000000083d40000000f7
:203c480000000000000000000000000000000000000000000800003f5e0000000120f000a6
:0a3c68000000000083c20d00000000
:203c720000000000000000000000000000000000000000000000bc1c000000180000000042
:093c9200010060083c60800001a3
:203c9b008000000000000000000000000000000000000000000003c00000000000000000c6
:0a3cbb000028000083c2050000008d
:203cc50000000000000000000000000000000000000000000000aa9cc181000c000000004b
:093ce5000000304a9401000000c7
:203cee00c0000000000000000000000000000000000000000000003c2b008000000000000f
:0a3d0e00000002009680c90b0004bb
:203d180000020000000000000000000000000000000000000000aa9ca000000000000000a3
:093d3800000000083c40000000fe
:203d41000000000000000000000000000000000000000000000002a81000000000000000a8
:0a3d61000000000083c20000000013
:203d6b00000000000000000000000000000000000000000000000000001800000000000020
:093d8b00780000083d40018000b1
:203d94000000200000000000000000000000000000000000000000000000000100000001ed
:0a3db400c400040083c000000010ea
:203dbe000000000000000000000000000000000000000000000000000000000000000000e5
:093dde00000000000000000000dc
:203de7000000000000000000000000000000000000000000000000000000000100000000bb
:0a3e070000000000000000090000a8
:203e1100000000000000000000000000000000000000000000000000081800000000000071
:093e3100000000083cc000000084
:203e3a00000000000000000000000000000000000000000000000000001000000000000058
:0a3e5a000000040083c00000001007
:203e640000000000000000000000000000000000000000000000000000000000000000003e
:093e8400000030083de078000068
:203e8d00c00000000000000000000000000000000000000000000000000000000000000055
:0a3ead000000012083c20000001491
:203eb70000000000000000000000000000000000000000000000000000000000000a1f8042
:093ed7000000001815f85000006d
:203ee000000000000000000000000000000000000000000000000000000000000000a080a2
:0a3f00000000000081420d80000067
:203f0a00000000000000000000000000000000000000000000000000000000000000001483
:093f2a000000000b9dddd98001af
:203f33008000000000000000000000000000000000000000000000000000000000000000ee
:0a3f530020000000b04fa10b000099
:203f5d00000000000000000000000000000000000000000000000000000000000000000044
:093f7d000000001814d800000037
:203f860000000000000000000000000000000000000000000000000000000000000000001b
:0a3fa6000000000081400000000050
:203fb0000002000000000000000000000000000000000000000000000000000000000000ef
:093fd0000000000a940119a00090
:203fd9000000000000000000000000000000000000000000000000000000000000000000c8
:0a3ff900000000409680800b00409d
:2040030000000000000000000000000000000000000000000000000000000000000000009d
:09402300000000083cc0198000f7
:20402c00000020000000000000000000000000000000000000000000000000000000000054
:0a404c000000004083c200000000e5
:2040560000000000000000000000000000000000000000000000000000000000000000004a
:09407600004000091fe800a00051
:20407f00000000000000000000000000000000000000000000000000000000000000000021
:0a409f0000000080b1c5ed10000024
:2040a9000000000000000000000000000000000000000000000000000000000000000000f7
:0940c9000000000b9ee9501000fc
:2040d2000000000000000000000000000000000000000000000000000000000000000000ce
:0a40f20000000000b065808a0000a5
:2040fc000000000000000000000000000000000000000000000000000000000000000000a4
:09411c00054000083d7b80e00035
:20412500c00000000000000000000000000000000000000042000000000000000000000078
:0a41450003800000a2de91100004c8
:20414f00000000000000000000000000000000000000000000000000000000000000002030
:09416f0000000002155ff00014cd
:2041780000000000000000000000000000000000000000000800000000000000000000011e
:0a41980040000000101fb5800080f9
:2041a20000000000000000000000000000000100000000000000000000000000160557800a
:0941c20000006000005900b0018a
:2041cb008000000000000000000000000000000000000000000000000000000000205000e4
:0a41eb0000000000013ee51a00008c
:2041f5000000000000000000000000000000000000000000000000000000000000000000aa
:094215002800000028fc800000d4
:20421e00000000000000000000000000000000000000000000000000000000000000000080
:0a423e0004000000028101000000ee
:20424800000200000000000000000000000000000000000000000000000000000000000054
:094268000400010094f95000006b
:2042710000000000000000000000000000000000000000000000000000000000000000002d
:0a429100028000000083e00000003e
:20429b00000000000000000000000000000000000000000000000000000000000000000003
:0942bb002800020140c801800046
:2042c4000000200000000000000000000000000000000000000000000000000000000000ba
:0a42e40004000000140100100000a7
:2042ee00000000000000000000000000000000000000000000000000000000000000001c94
:09430e000000020a81e199800817
:20431700000000000000000000000000000000000000000000000000000000000000000086
:0a433700200000001402c9900040ad
:204341000000000000000000000000000000000000000000000000000000000002053040e5
:0943610038000001406e80a0004c
:20436a00000000000000000000000000000000000000000000000000000000002120a0381a
:0a438a000400000014010900000007
:2043940000000000000000000000000000000000000000000000000000000000025293c062
:0943b40060003100085b98110063
:2043bd0000000000000000000000000000000000000000000000000000000000006a5ba873
:0a43dd00040001000003e98900005c
:2043e7000000000000000000000000000000000000000000000000000000000000000000b6
:09440700600000001ceb0181c003
:2044100000000000000000000000000000000000000000000000000000000000000000008c
:0a44300000000000009fa000000043
:20443a000028000000000000000000000000000000000000000000000000000002e773409e
:09445a000000610a857839c001f7
:2044630080040000000000000000000000000000000000000000000000000000002c113840
:0a44830000000000b6c2801a00001d
:20448d003000000000000000000000000000000000000000000000000000000000000000df
:0944ad0000000000000070e000b6
:2044b6000000000000000000000000000000000000000000000000000000000000000000e6
:0a44d60000000000000005100000c7
:2044e0000002000000000000000000000000000000000000000000000000000000000000ba
:0945000000000000000051c000a1
:20450900000000000000000000000000000000000000000000000000000000000000000092
:0a4529000000000000000000000088
:20453300000000000000000000000000000000000000000000203c0c0008000000000000f8
:094553000400000000000000005b
:20455c000000200000000000000000000000000000000000000003c000010000000000005b
:0a457c0002400000000000000000f3
:20458600000000000000000000000000000000000000000000000000000000000000000015
:0945a60000000018bfeb18000032
:2045af000000000000000000000000000000000000000000000000000000000000000000ec
:0a45cf000000000082e5d0000000ab
:2045d9000000000000000000000000000000000000000000000000000000000000000000c2
:0945f900600000000000018014c4
:20460200000000000000000000000000000000000000000000000000000000000000000098
:0a462200040000000000000000008a
:20462c0000000000000000000000000000000000000000000000000000000000000000006e
:09464c000400300a9f4b018000bc
:20465500c00000000000000000000000000000000000000000000000000000000000000085
:0a467500024001009486d00000040a
:02467f00000039
:02468100110323
:02468300010133
:20468500000000000000000000000000000000000000000000000000000000000000000015
:0946a5000000000000000000000c
:2046ae000000000000000000000000000000000000000000000000000000000000000000ec
:0a46ce0000000000000000000000e2
:2046d8000000000000000000000000000000000000000000000000000000000000000000c2
:0946f800000000000000000000b9
:20470100000000000000000000000000000000000000000000000000000000000000000098
:0a472100000000000000000000008e
:20472b0000000000000000000000000000000000000000000000000000000000000000006e
:09474b0000000000000000000065
:20475400000000000000000000000000000000000000000000000000000000000000000045
:0a477400000000000000000000003b
:20477e0000000000000800000000000020000000000800000000000020000000000000804b
:09479e0000000000000200000010
:2047a7000000000000000000000000000000000000000000000000000000000000000000f2
:0a47c70000000000000000000000e8
:2047d1000000000000080000000000002000000000080000000000002000000000000080f8
:0947f100000000000002000000bd
:2047fa0000000000000000000000000000000000000000000000000000000000000000009f
:0a481a000000000000000000000094
:20482400000000000000000000000000000000000000000000000000000000000000000074
:094844000000000000000000006b
:20484d0000000000000000000000000000000000000000000000000000000000000000004b
:0a486d000000000000000000000041
:20487700000000000000000000000000000000000000000000000000000000000000000021
:0948970000000000000000000018
:2048a0000000000000000000000000000000000000000000000000000000000000000000f8
:0a48c00000000000000000000000ee
:2048ca000000000000000000000000000000000000000000000000000000000000000000ce
:0948ea00000000000000000000c5
:2048f3000000000000000000000000000000000000000000000000000000000000000000a5
:0a491300000000000000000000009a
:20491d0000000000000000000000000000000000000000000000000000000000000000007a
:09493d0000000000000000000071
:20494600000000000000000000000000000000000000000000000000000000000000000051
:0a4966000000000000000000000047
:20497000000000000000000000000000000000000000000000000000000000000000000027
:094990000000000000000000001e
:204999000000000000000000000000000000000000000000000000000000000000000000fe
:0a49b90000000000000000000000f4
:2049c3000000000000000000000000000000000000000000000000000000000000000000d4
:0949e300000000000000000000cb
:2049ec000000000000000000000000000000000000000000000000000000000000000000ab
:0a4a0c0000000000000000000000a0
:204a160000020000000000000000000000000000000000000000000000000000000000007e
:094a360000000000000000000077
:204a3f00000000000000000000000000000000000000000000000000000000000000000057
:0a4a5f00000000000000000000004d
:204a690000000000000000000000000000000000000000000000000000000000000000002d
:094a890000000000000000000024
:204a92000000200000000000000000000000000000000000000000000000000000000000e4
:0a4ab20000000000000000000000fa
:204abc000000000000000000000000000000000000000000000000000000000000000000da
:094adc00000000000000000000d1
:204ae5000000000000000000000000000000000000000000000000000000000000000000b1
:0a4b050000000000000000000000a6
:204b0f00000000000000000000000000000000000000000000000000000000000000000086
:094b2f000000000000000000007d
:204b380000000000000000000000000000000000000000000000000000000000000000005d
:0a4b58000000000000000000000053
:204b6200000000000000000000000000000000000000000000000000000000000000000033
:094b82000000000000000000002a
:204b8b0000000000000000000000000000000000000000000000000000000000000000000a
:0a4bab000000000000000000000000
:204bb5000000000000000000000000000000000000000000000000000000000000000000e0
:094bd500000000000000000000d7
:204bde000400000000000000000000000000000000000000000000000000000000000000b3
:0a4bfe0000000000000000000000ad
:204c080080000000000000000000000000000000000000000000000000000000000000000c
:094c280000000000000000000083
:204c3100000000000000000000000000000000000000000000000000000000000000000063
:0a4c51000000000000000000000059
:204c5b00000000000000000000000000000000000000000000000000000000000000000039
:094c7b0000000000000000000030
:204c840004000000000000000000000000000000000000000000000000000000000000000c
:0a4ca4000000000000000000000006
:204cae000002000000000000000000000000000000000000000000000000000000000000e4
:094cce00000000000000000000dd
:204cd7000000000000000000000000000000000000000000000000000000000000000000bd
:0a4cf70000000000000000000000b3
:204d0100000000000000000000000000000000000000000000000000000000000000000092
:094d210000000000000000000089
:204d2a00000020000000000000000000000000000000000000000000000000000000000049
:0a4d4a00000000000000000000005f
:204d540000000000000000000000000000000000000000000000000000000000000000003f
:094d740000000000000000000036
:204d7d00000000000000000000000000000000000000000000000000000000000000000016
:0a4d9d00000000000000000000000c
:204da7000000000000000000000000000000000000000000000000000000000000000000ec
:094dc700000000000000000000e3
:204dd0000000000000000000000000000000000000000000000000000000000000000000c3
:0a4df00000000000000000000000b9
:204dfa00000200000000000000000000000000000000000080000000000000000000000017
:094e1a000000000000000000008f
:204e230000000000000000000000000000000000000000000000000000000000000000006f
:0a4e43000000000000000000000065
:204e4d0000280000000000000000000000000000000000000000000000000000000000001d
:094e6d000000000000000000003c
:204e76000400400000000000000000000000000000000000000000000000000000000000d8
:0a4e96000000000000000000000012
:204ea000800000000000000000000000000000000000000000000000000000000000000072
:094ec000000000000000000000e9
:204ec9000000000000000000000000000000000000000000000000000000000000000000c9
:0a4ee90000000000000000000000bf
:204ef3000c0000000000000000000000000000000000000000000000000000000000000093
:094f130000000000000000000095
:204f1c0004c0000000000000000000000000000000000000000000000000000000000000b1
:0a4f3c00000000000000000000006b
:204f4600000200000000000000000000000000000000000000000000000000000000000049
:094f660000000000000000000042
:204f6f00000000000000000000000000000000000000000000000000000000000000000022
:0a4f8f000000000000000000000018
:204f99000000000000000000000000000000000000000000000000000000000000000000f8
:094fb900000000000000000000ef
:204fc2000000200000000000000000000000000000000000000000000000000000000000af
:0a4fe20000000000000000000000c5
:204fec000000000000000000000000000000000000000000000000000000000000000000a5
:09500c000000000000000000009b
:2050150000000000000000000000000000000000000000000000000000000000000000007b
:0a5035000000000000000000000071
:20503f00000000000000000000000000000000000000000000000000000000000000000051
:09505f0000000000000000000048
:20506800000000000000000000000000000000000000000000000000000000000000000028
:0a508800000000000000000000001e
:205092000002000000000000000000000000000000000000000000000000000000000000fc
:0950b200000000000000000000f5
:2050bb000000000000000000000000000000000000000000000000000000000000000000d5
:0a50db0000000000000000000000cb
:2050e5000000000000000000000000000000000000000000000000000000000000000000ab
:09510500000000000000000000a1
:20510e00000000000000000000000000000000000000000000000000000000000000000081
:0a512e000000000000000000000077
:20513800000000000000000000000000000000000000000000000000000000000000000057
:095158000000000000000000004e
:2051610000000000000000000000000000000000000000000000000000000000000000002e
:0a5181000000000000000000000024
:20518b00000000000000000000000000000000000000000000000000000000000000000004
:0951ab00000000000000000000fb
:2051b4000000000000000000000000000000000000000000000000000000000000000000db
:0a51d40000000000000000000000d1
:2051de000002000000000000000000000000000000000000000000000000000000000000af
:0951fe00000000000000000000a8
:20520700000000000000000000000000000000000000000000000000000000000000000087
:0a522700000000000000000000007d
:2052310000000000000000000000000000000000000000000000000000000000000000005d
:0952510000000000000000000054
:20525a000020200000000000000000000000000000000000000000000000000000000000f4
:0a527a00000000000000000000002a
:2052840000000000000000000000000000000000000000000000000000000000000000000a
:0952a40000000000000000000001
:2052ad000000000000000000000000000000000000000000000000000000000000000000e1
:0a52cd0000000000000000000000d7
:2052d7000000000000000000000000000000000000000000000000000000000000000000b7
:0952f700000000000000000000ae
:2053000000000000000000000000000000000000000000000000000000000000000000008d
:0a5320000000000000000000000083
:20532a000000000000000000000000000000000000000000800000000000000000000000e3
:09534a000000000000000000005a
:2053530000000000000000000000000000000000000000000000000000000000000000003a
:0a5373000000000000000000000030
:20537d00000000000000000000000000000000000000000000000000000000000000000010
:09539d0000000000000000000007
:2053a6000400000000000000000000000000000000000000000000000000000000000000e3
:0a53c60000000000000000000000dd
:2053d00080000000000000000000000000000000000000000000000000000000000000003d
:0953f00000004000000000000074
:2053f900000000000000000000000000000000000000000000000000000000000000000094
:0a5419000000000000000000000089
:20542300080000000000000000000000000000000000000000002940800000000000000078
:0954430000000000000000000060
:20544c000400000000000000000000000000000000000000000021680000000000000000b3
:0a546c000000000000000000000036
:20547600000000000000000000000000000000000000000000000000000000000000000016
:09549600000040000000000001cc
:20549f000003000000000000000000000000000000000000000000000000000000000000ea
:0a54bf0000000000000000000000e3
:2054c9000000000000000000000000000000000000000000000000000000000000000000c3
:0954e900000000000000000000ba
:2054f20000000000000000000000000000000000000000000000000000000000000000009a
:0a551200000000000000000000008f
:20551c00080000000000000000000000000000000000000000000000000000000000000067
:09553c0000000000000000000066
:20554500044000000000000000000000000001c00000000000000000000000000000000041
:0a556500000000000000000000003c
:20556f0080000000000000000000000000000000000000000000000000000000000000009c
:09558f0000000000000000000013
:205598000000000000000000000000000000000000000000000000000000000000000000f3
:0a55b80000000000000000000000e9
:2055c2000000000000000000000000000000000000000000000000000010000000000000b9
:0955e200000000000000000000c0
:2055eb00040380000000000000000000000000000000000000000000000080000000000099
:0a560b000000000000000000000095
:20561500000000000000000000000000000000000000000000000000000000000000000075
:095635000000000000000000006c
:20563e00040000000000000000000000000000000000000000000000000000000000000048
:0a565e000000000000000000000042
:205668008000000000000000000000000000000000000000000000000000000000000000a2
:0956880000000000000000000811
:20569100000680000000000000000000000000000000000000000000000000000000000073
:0a56b10000000000000000000040af
:2056bb000800000000000000000000000000000000000000000000000000000000000000c7
:0956db00000000000000000000c6
:2056e400044000000000000000000000000000000000000000000000000000000000000062
:0a570400000000000000000000009b
:20570e00003e0000000000000000000000000000000000000000000000000000000000003d
:09572e0000000000000000000072
:20573700000040000000000000000000000000000000000000000000000000000000000012
:0a5757000000000000000000000048
:20576100000000000000000000000000000000000000000000000000000000000000000028
:095781000000000000000000001f
:20578a000000300000000000000000000000000000000000000000000000000000000000cf
:0a57aa0000000000000000000000f5
:2057b4000800000000000000000000000000000000000000000000000000200000000000ad
:0957d400000000000000000000cc
:2057dd0004c0000000000000000000000000000000000000000000000000040000000000e4
:0a57fd0000000000000000000000a2
:20580700800000000000000000000000000000000000000000000000000000000000000001
:0958270000000000000000000078
:20583000000000000000000000000000000000000000000000000000000000000000000058
:0a585000000000000000000000004e
:20585a000002000000000000000000000000000000000000800000000000000000000000ac
:09587a0000000000000000000025
:20588300040000000000000000000000000000000000000000000000000000000000000001
:0a58a30000000000000000000000fb
:2058ad000000000000000000000000000000000000000002000000000000000000000000d9
:0958cd00000000000000000000d2
:2058d6000000000000000000000000000000000000000000000000000000000000000000b2
:0a58f60000000000000000000000a8
:20590000000000000000000000000000000000000000000000000000000000000000000087
:095920000000000000000000007e
:2059290000000000000000000000000000000000000000000000000000000000000000005e
:0a5949000000000000000000000054
:20595300000000000000000000000000000000000000000000022940a00000000000000029
:095973000000000000000000002b
:20597c000000000000000000000000000000000000000000000001680000000000000000a2
:0a599c000000000000000000000001
:2059a6000002000000000000000000000000000000000000000000000000000000000000df
:0959c600000000000000000000d8
:2059cf000000000000000000000000000000000000000000100000000000000000000000a8
:0a59ef0000000000000000000000ae
:2059f90000000000000000000000000000100000000000000000000000000000000000007e
:095a190000000000000000000084
:205a22000000300000000000000000000001c0000000000000000000000000000000000073
:0a5a4200000000000000000000005a
:205a4c00000000000000000000000000000000000000000000000000000d0000000000002d
:095a6c0000000000000000000031
:205a7500000000000000000000000000000000000000000000000000000010000000000001
:0a5a95000000000000000000000007
:205a9f00000000000000000000203c0000000000000000000000000000000000000000008b
:095abf00000000000000000000de
:205ac8000040000000000000000003c160000000000000000000000000000000000000005a
:0a5ae80000000000000000000000b4
:205af200000200000000000000000000000000000000000000000000000000000000000092
:095b12000000000000000000008a
:205b1b0000000000000000000000000000000000000000000000000000000000000000006a
:0a5b3b000000000000000000000060
:205b4500002400000000000000000000000000000000000000000000000000000000001c00
:095b6500000010003c20000000cb
:205b6e000400400000000000000000000000000000000000000000000000000000000002d1
:0a5b8e000000030083d400000000b3
:205b98008000000f000000000000000000000000000000000000000000000000000000005e
:095bb800000000003c00000000a8
:205bc10000000000f050000000000000000000000000000000000000000000000000000084
:0a5be1000000000083ce0000000069
:205beb000c000000000000000000000000000000000000000000000000000000000000008e
:095c0b00000000003c2010000024
:205c140004c0000000000000000000000000000000000000000000000000000000000000ac
:0a5c34000000200083d608180000cd
:205c3e000002000000000000000000000000000000000000000000000000000012050c0021
:095c5e000000000000000100003c
:205c67000000000000000000000000000000000000000000000000000000000000a057e83e
:0a5c8700000000000000001c0000f7
:205c9100000000000000000000000000000000000000000000000000000000000000000ce7
:095cb100000000003c200000008e
:205cba00006020000000000000000000000000000000000000000000000000000000000248
:0a5cda000000000083c401800000f8
:205ce40000000000000003000000000000000000000000000000000000000000000000009d
:095d040000000213c01b70000036
:205d0d00000000000000000000000000000000000000000000000000000000000000000076
:0a5d2d00000000102c0ca180000003
:205d370000000000000000000000000000000000000000000000000000000000000000004c
:095d570000000000003c00000007
:205d6000000000000000000000000000000000000000000000000000000000000000000023
:0a5d8000000006001417d000001800
:205d8a00000200000000000000000000000001400000000080000000000000000000000036
:095daa0000000000000070000080
:205db3000000000000000000000000000000000000000000000000000000000000000000d0
:0a5dd30000000000000000000000c6
:025ddd000000c4
:035ddf0062003f20
:035de200720080cc
:025de5001100ab
:035de70082000037
:025dea000103b3
:085dec000000000000000000af
:085df4000000000000000000a7
:085dfc0000000000000000009f
:085e0400000000000000000096
:0261ec000000b1
:0361ee00820080ac
:0261f1000103a8
:0861f3000000000000000000a4
:0861fb0000000000000000009c
:08620300000000000000000093
:08620b0000000000000000008b
:0265f3000000a6
:0265f500110192
:0365f7008200001f
:0265fa0001039b
:0865fc00000000000000000097
:0866040000000000000000008e
:08660c00000000000000000086
:0866140000000000000000007e
:0269fc00000099
:0369fe0082008094
:026a010001038f
:086a030000000000000000008b
:086a0b00000000000000000083
:086a130000000000000000007b
:086a1b00000000000000000073
:026e030000008d
:026e0500110278
:036e070082000006
:026e0a00010382
:086e0c0000000000000000007e
:086e1400000000000000000076
:086e1c0000000000000000006e
:086e2400000000000000000066
:02720c00000080
:03720e008200807b
:02721100010377
:08721300000000000000000073
:08721b0000000000000000006b
:08722300000000000000000063
:08722b0000000000000000005b
:02761300000075
:0276150011035f
:03761700820000ee
:02761a0001036a
:08761c00000000000000000066
:0876240000000000000000005e
:08762c00000000000000000056
:0876340000000000000000004e
:027a1c00000068
:037a1e0082008063
:027a210001035f
:087a230000000000000000005b
:087a2b00000000000000000053
:087a330000000000000000004b
:087a3b00000000000000000043
:027e230000005d
:017e2500223a
:027e26003858ca
:027e2800010651
:00000001FF
